:020000040000FA
:1000000088060020DD000000F70000004506000023
:1000100000000000000000000000000000000000E0
:10002000000000000000000000000000FB000000D5
:100030000000000000000000FD000000970A000022
:10004000510600005B060000650600006F06000018
:1000500079060000830600008D0600009706000068
:100060000101000001010000A1060000AB06000034
:10007000B5060000BF060000C9060000D306000058
:10008000DD06000001010000E7060000F1060000A7
:10009000FB060000050700000F070000010100003B
:1000A0001907000001010000230700002D070000D0
:1000B0003707000001010000410700004B07000066
:1000C0000348854600F06AF800480047C101000077
:1000D0008806002080F308887047000009480A4A13
:1000E000002100A1814200D902440848026008486A
:1000F000804708480047FEE7FEE7FEE7FEE7FEE729
:10010000FEE70000000000200000000008ED00E015
:10011000250C0000C100000030B50B460146002050
:100120002022012409E00D46D5409D4205D31D46FD
:100130009540491B2546954040191546521E002DF5
:10014000F1DC30BD03460B439B0703D009E008C92F
:10015000121F08C0042AFAD203E00B780370401C77
:10016000491C521EF9D27047D2B201E00270401C05
:10017000491EFBD270470022F6E710B513460A4627
:1001800004461946FFF7F0FF204610BD421C0178D7
:10019000401C0029FBD1801A70470000064C012545
:1001A000064E05E0E36807CC2B430C3C984710341F
:1001B000B442F7D3FFF788FFE013000000140000FB
:1001C00010B500F02FFD01F061F8002010BD30B532
:1001D00004460020651803E02178641C00F072FDDD
:1001E000AC42F9D3002100F06DFD002100F06AFD62
:1001F00030BD00000449086008690007FCD5486963
:1002000002229043486170470001004002480068A4
:10021000002800D0004770470C00002010B50120D6
:1002200000F05AF8012804D100F010F8012000F085
:100230002BF8002000F050F8012805D1002000F034
:1002400005F8002000F020F810BD000010B50446AD
:1002500001200A4B0A490B4A002C06D0012C0BD175
:10026000CB62CA62886AA04304E0CB62CA62886A31
:10027000022290438862002010BD00005A5A0000FC
:1002800000000240A5A5000030B5054601200F4C36
:100290000F49104B6022002D0DD0012D0AD1CC62E8
:1002A000CB62086A4006C00F8301086A9043184376
:1002B0000862002030BDCC62CB62086A0B6A8006FF
:1002C000C00F4001934303430B62F2E75A5A000008
:1002D00000000240A5A50000024600200549002AB2
:1002E00004D0012A05D1486AC00701E0486A8007A6
:1002F000C00F704700000240F7B58AB00C460646B2
:100300000025FF272021684609970895FFF733FF4E
:100310002848012C02460CD0022C0AD0042C08D00C
:10032000062C06D0082C04D00C2C02D004200DB0D2
:10033000F0BD214B1E60016A01235B0299430C9BB7
:10034000DB079B0D1943016269461C4EAB00F65852
:100350006D1C6643CE50082DF7D30C26184B194D53
:10036000082C0BD00C2C0FD0C362C562046AB443B6
:1003700004620024FF23A600099310E0C362C56253
:10038000046AB443241DF3E70197F7E7099D6D1E46
:1003900009950DD30A4BC3620A4BC3629751935917
:1003A0008F59BB42F2D1641C082CE3D30898BEE7F6
:1003B0000720BCE7000002400C0000206C13000086
:1003C0005A5A0000A5A50000F8B5FF2225490027CC
:1003D0000092884201D90420F8BD234903E0009B24
:1003E0005C1E00943CD30B6ADB06F8D41F4B204CF8
:1003F00000920AE0009E761E009631D3CB62CC625A
:100400000D6AAD08AD00AD1C0D620D6AAD07AD0FF4
:10041000022DEFD1009208E0009E761E00961FD3B9
:10042000CB62CC620025ED430D630D6B6D1CF3D1E7
:100430000570009203E00098461E009610D3086AEB
:10044000C006F8D4009206E00098421E009207D33E
:10045000CB62CC620D63086B0028F5D13846F8BD3D
:100460000920F8BDFFFF0000000002405A5A0000BA
:10047000A5A50000F8B58C46FF2327490027009367
:10048000884201D90420F8BD244A03E000994C1E9B
:1004900000943ED3116AC906F8D4214C214D009333
:1004A0000AE0009E711E009133D3D462D562166AB1
:1004B000B608B600761C1662166AB607B60F012E8D
:1004C000EFD1009308E0009E711E009121D3D46209
:1004D000D5620026F6431663166B761CF3D161468F
:1004E0000160009303E00098411E009111D3106A4F
:1004F000C006F8D40021009306E00098431E009344
:1005000007D3D462D5621163106B0028F5D1384649
:10051000F8BD0920F8BD0000FFFF00000000024008
:100520005A5A0000A5A5000030B5224BC318DD685B
:1005300001248C40A543DD60890008181E49002570
:100540004018056010780128186824D0A04318606E
:1005500050780028D86920D02043D86190780128AD
:100560001DD00228186A1DD0A0431862586AA04303
:100570005862D0780028D86A19D02043D8620F4931
:10058000886801231279DB03D2079843120C1043C9
:100590008860002030BD2043D9E7A043DDE7186A1A
:1005A0002043E2E7A0431862586A2043E0E7A043F3
:1005B000E4E70000000D0240000C0240000F024082
:1005C00089000818024940180260002070470000A6
:1005D000000C024002480169022291430161704708
:1005E00000E000E0014800687047000004000020BF
:1005F00002480168491C01607047000004000020A7
:1006000010B50C487D21C9000068FFF785FD0A4937
:10061000401E88420CD80949486109480722C3692D
:100620001B021B0A4C042343C361002088610A613A
:1006300010BD000000000020FFFFFF0000E000E010
:1006400004ED00E008B5002000900028FDD008BDB2
:1006500010B50020C046C04610BD10B50120C046F0
:10066000C04610BD10B50220C046C04610BD10B532
:100670000320C046C04610BD10B50020C046C0468D
:1006800010BD10B50020C046C04610BD10B50020FA
:1006900000F0E4FA10BD10B5012000F0DFFA10BD43
:1006A00010B50020C046C04610BD10B50120C046A0
:1006B000C04610BD10B50020C046C04610BD10B5E4
:1006C0000120C046C04610BD10B50020C046C0463F
:1006D00010BD10B50120C046C04610BD10B50220A7
:1006E000C046C04610BD10B50420C046C04610BD6F
:1006F00010B50520C046C04610BD10B50620C04646
:10070000C04610BD10B50020C046C04610BD10B593
:100710000020C046C04610BD10B50020C046C046EF
:1007200010BD10B50020C046C04610BD10B5012058
:10073000C046C04610BD10B50020C046C04610BD22
:1007400010B50020FFF762FD10BD10B50020C046B7
:10075000C04610BDF3B50024104F81B02646254693
:1007600039460298FFF7D8FC019A303010550291B3
:100770000A213846641CFFF7CFFC07460198001990
:100780002038C07F302801D1002E04D0761C6D1C8B
:100790000A2DE5D3FEBD0024F9E7000000CA9A3B0C
:1007A00010B500F06DF810BDF7B582B000240C60F4
:1007B0000F46064601216846049A00F07BFD054677
:1007C000012821D168460078182821D006DC0128AC
:1007D0000CD002280CD0042806D137E0412803D0E1
:1007E000612801D0722822D000252FE0802401E06A
:1007F0000124A4023070211DB01C049A00F05AFD9F
:100800000546012824D000243C60284605B0F0BDF0
:1008100001216846049A00F04DFD012803D1684685
:100820000078182801D000250EE002240EE00121F6
:100830006846049A00F03EFD012805D1684600781C
:10084000652803D100F014FD684600783070DBE7BE
:10085000F078B178FF22504081420DD130190179F2
:1008600040790902401801902146301DFFF7AFFC86
:10087000014601988142C7D000242546C4E7000004
:100880001FB50020009001900290039003A800F093
:100890002BFA002807D0052825D0042825D00228C7
:1008A00027D015A022E01C4800F090F81B4800F06B
:1008B0008DF868460399FFF74DFF19A000F086F800
:1008C000684600F083F819A000F080F81AA000F044
:1008D0007DF800F087FBFFF77DFE72B607208002EF
:1008E00000F0B0FC1FBD1AA000E029A000F06EF8D7
:1008F0001FBD2EA0FAE700000A0D4661696C656411
:1009000020746F2072656365697665207468652060
:1009100066696C65210A0D008C1300003000002010
:100920000A0D2053697A653A20000000204279744C
:1009300065730D0A000000002D2D2D2D2D2D2D2D60
:100940002D2D2D2D2D2D2D2D2D2D2D0A00000000AE
:100950000A0A0D54686520696D6167652073697ABC
:100960006520697320686967686572207468616EC4
:100970002074686520616C6C6F77656420737061AA
:100980006365206D656D6F7279210A0D00000000AE
:100990000A0A0D566572696669636174696F6E2033
:1009A0006661696C6564210A0D0000000D0A0A4148
:1009B000626F7274656420627920757365722E0AA5
:1009C0000D00000010B500F08BFB10BD10B500212C
:1009D00001E0491C89B2425C002AFAD100F092FC85
:1009E00010BDF0B5054600242B7820462246302B5A
:1009F0002CD16B78782B01D0582B27D102241AE008
:100A00001E46413E052E06D91F46613F052F02D9DD
:100A10003137092F13D81F461201303F092F01D853
:100A20003B4604E0052E01D8373B00E0573BD21887
:100A3000641C0B2C04D22B5D002BE1D103E00020C1
:100A40002B5D002B01D101200A60F0BD2B5D002B36
:100A50000ED06B2B01D04B2B03D1002C01D0920276
:100A600006E06D2B01D04D2B05D1002C03D01205D3
:100A700001200A6007E01E46303E092E09D80A26EA
:100A80007243303A9A18641C0B2CDED20128DDD157
:100A9000F0BD0020F0BD00B5FFF7AAFD00BD0000CD
:100AA00010B58AB000241422484904A8FFF74AFB75
:100AB0004648001F006809900020019002900390B2
:100AC0004348028869468A8142884A8182880A812D
:100AD000C088C8803E482030008888803D48016832
:100AE00009064A0F3C49130000F0CAF905042A2CF4
:100AF000383B6800C1686A4649059289490D9142B0
:100B000001D1089C5AE0C1686A4649055289490DDD
:100B1000914201D1079C51E0C1686A46490512899A
:100B2000490D914201D1069C48E0C1686A464905D9
:100B3000D288490D914201D1059C3FE0049C3DE0E3
:100B40000C463BE06946898842699205920D9142C4
:100B5000694601D1CC8C31E08C8C2FE00124E40378
:100B60002CE0C26BD243920724D169468989C268BE
:100B70005205520D914201D108991BE069464989FD
:100B8000C2685205520D914201D1079912E069469F
:100B90000989C2685205520D914201D1069909E0B6
:100BA0006946C988C2685205520D914201D1059922
:100BB00000E00499C26BD205140F4C4300680AB0E0
:100BC0004005410F2046C84010BD000058130000EA
:100BD000000C1000002000400048E80110B5FFF7AD
:100BE0005FFF03490968C904890FC84010BD0000B0
:100BF0000020004010B5044601230020044AA34011
:100C00000029116A01D0194300E09943116210BD17
:100C10000020004010B5FFF743FF0149086010BDF8
:100C20000000002010B50B48408881050A48890D56
:100C30004269920A92020A434261064920390989AF
:100C4000C2684905490DD20AD2020A43C260FFF7C1
:100C5000E1FF10BD200C10000020004010B5164828
:100C600001690023CA071549002A0FD042695208BA
:100C70005200426100F0F4F8114C0A88A054521C52
:100C800090B208800A2800D30B8010BD0120800795
:100C90000269D207F9D0426952085200426100F05D
:100CA000D1F8074C4A880A34A054521C90B24880AC
:100CB0000A28EAD34B8010BD00010040100000203C
:100CC0001C000020074AFF31013140004900CB05DC
:100CD00000D5401CC30300D55040CB03F5D580B2EE
:100CE0007047000021100000F1B5002790B00720E8
:100CF0005049800208973D463C46086093E000203A
:100D000006460B908BE07D22D2000CA94A48FFF7E3
:100D10004BFD01280AD00898002800D06D1C052D35
:100D20007AD91820FFF74EFE182076E00C9A00259D
:100D3000002A0ED0022A07D03F490B988B78C0B208
:100D400083420BD0152068E00620FFF73BFE02240B
:100D500065E00620FFF736FE012660E00B980028CC
:100D60000CD034480068091D00F0D5F831480068FF
:100D70000C9941182F48016006203EE008790028B0
:100D800044D000202D4B091D02E01A54401C491C80
:100D90000A78002A01D04028F7D300221A541046BE
:100DA00004AB01E01A54401C491C0A78202A01D0E7
:100DB0001028F7D3002119540DA91846FFF711FE8A
:100DC00010981F49006888420BD91820694608729C
:100DD000012102A800F096FA012102A800F092FA7F
:100DE000052407207221800200F0CCF810980D999C
:100DF00001600620FFF7E6FD4320FFF7E3FD0B98B7
:100E0000401C0B900120089009E005E00620FFF748
:100E1000D9FD0126374602E04320FFF7D3FD3046D7
:100E2000204300D16FE73846204300D167E72046D2
:100E300011B0F0BD14000020700000203000002030
:100E400001E40000012080070068C0B27047000084
:100E5000024800698007C00F704700000001004091
:100E600001480068C0B270470001004010B5024A56
:100E7000024900F021F810BD2B12000008000020EC
:100E800030B47446641E2578641CAB4200D21D4603
:100E9000635D5B00E31830BC184702E008C8121F0E
:100EA00008C1002AFAD170477047002001E001C153
:100EB000121F002AFBD17047F8B516460F460446AC
:100EC000002503E03946B047641C6D1C20780028DB
:100ED000F8D12846F8BD000004480549406888421A
:100EE00001D00120704700207047000078040020E6
:100EF000AAAAAAAA70B5002401256D03601900F002
:100F00004FF8FF2801D0012070BD641CE4B2202CF2
:100F1000F4D3002070BDF8B500240E460546002A23
:100F200019D0900702D092089200121D970810E085
:100F3000A000315C821950780002084391780904BE
:100F40000143D07800060143284600F02BF8641CCA
:100F50002D1DA742ECD8F8BD70B500240325054E21
:100F6000ED02601900F01CF83055641CA4B2102C7E
:100F7000F7D370BD7804002010B500F033F8FFF708
:100F800029FB10BD70B50D460646002404E0600242
:100F90008019FFF719FA641CAC42F8D3012070BD28
:100FA0000078704770B504460D46800709D1204689
:100FB000FFF760FA002804D12068A84201D101207F
:100FC00070BD002070BD000010B50122114604481C
:100FD000FFF792F9FFF714FB00F028F810BD0000AE
:100FE0001D0200001CB50521684600F015F901211D
:100FF0001C20FFF7FFFD0124684604706A460221A9
:101000000020FFF791FA684604706A460321002029
:10101000FFF78AFA04484168102291434160416811
:10102000A14341601CBD0000000100401CB505212A
:10103000684600F0F1F801211C20FFF7DBFD0021DC
:10104000684601706A4602210020FFF76DFA01220E
:1010500002210020FFF7B4FA0121684601706A46B8
:1010600003210020FFF760FA012203210020FFF78F
:10107000A7FA01210846FFF7BDFD114C6068C021A9
:10108000884340306060606809028843606060683F
:10109000611508436060FFF7A1FD61688905C90F0C
:1010A0000BD008214B22D2015143FFF735F8A06144
:1010B00060681021084360601CBD1021F2E7000049
:1010C0000001004030B50C460546002304E0E85C12
:1010D00000F006F85B1C9BB2A342F8D330BD0000C1
:1010E00000B507490A68120A120202430A60FFF7B4
:1010F000AFFE0028FBD0486902229043486100BD42
:101100000001004010B5FFF7E7FE002812D0FFF7FE
:10111000F1FE00280AD008A0FFF7A8FEFFF72CFF79
:1011200072B60720800200F08DF810BD11A0FFF705
:101130009DFE10BD1EA0FAE761707020657869738E
:10114000742C206A756D7020746F206170702E2E63
:101150002E2028617070206E657665722065726140
:1011600073656420262076616C6964206170702943
:101170000D0A0000617070206E6F742065786973CD
:10118000742C20776169742E2E2E202861707020B7
:101190006E65766572206572617365642026206EC7
:1011A0006F2076616C696420617070290D0A0000FF
:1011B000617070206E6F742065786973742C20776D
:1011C0006169742E2E2E2028617070206572617303
:1011D0006564290D0A00000038B500200090FFF773
:1011E00001FA4B21C90044180EE032220221684660
:1011F00000F060F8012807D168460078732803D111
:1012000068464078742805D0FFF7ECF9A042ECD985
:10121000002038BD012038BD002805D00022491E1D
:1012200002D30270401CFAE77047034600B5C0B213
:101230000A2802D10D20FEF7DDFFD8B2FEF7DAFF53
:10124000184600BD10B50168074A11400122520737
:10125000914207D14168054C21600068FEF73AFFD2
:101260002068804710BD00000000FE2F18000020FD
:1012700072B6BFF34F8F04490248C860BFF34F8F67
:1012800000BFFDE70400FA0500ED00E0FFF79CFE5B
:10129000FFF762FEFFF7A0FF002801D1FFF732FF42
:1012A000FFF77EFA00F032F80128FBD1FFF7E0FFEC
:1012B000F8E70000F7B582B016460F46FFF792F93F
:1012C00000240F4D009016E0002E05D0FFF78AF99C
:1012D0000099401AB04202D9002005B0F0BD28693B
:1012E000C007F1D068694008400068612868029929
:1012F0000855641CA4B2BC42F1D30120EDE7000004
:101300000001004010B5FFF7DDFE10BDF8B5002567
:1013100069462C460D700DA60EE03222012168466A
:10132000FFF7C8FF01280ED16946305D0978884271
:1013300009D10125641CE4B23046FEF727FFA04224
:10134000EBD82846F8BD0025FBE700007265626F08
:101350006F7400000080009600093D0000127A00C2
:101360000024F4004086510100366E012000000088
:10137000170000001B00000050460000E0220200A1
:1013800018000000F0000000E80300000A0A0D2029
:1013900050726F6772616D6D696E6720436F6D701B
:1013A0006C65746564205375636365737366756CEF
:1013B0006C79210A0D2D2D2D2D2D2D2D2D2D2D2D21
:1013C0002D2D2D2D2D2D2D2D2D2D2D2D2D2D2D2D4D
:1013D0002D2D2D2D2D0D0A204E616D653A2000001A
:1013E00000140000000000201C0000009A0E000005
:1013F0001C1400001C0000206C060000AA0E000057
:1014000000093D0000000000000000000000000096
:0C141000000000000000000000000000D0
:04000005000000C136
:00000001FF
