:020000040800F2
:1000000058110020DD000008F5060008F90300087B
:1000100000000000000000000000000000000000E0
:10002000000000000000000000000000610800085F
:100030000000000000000000F70600087B0A00082E
:10004000EF00000800000000EF000008EF000008CB
:10005000EF000008EF000008EF000008EF000008C4
:1000600000000000EF000008EF000008EF000008AB
:10007000EF000008EF000008EF000008000000009B
:10008000EF0000080000000000000000EF00000882
:1000900000000000EF000008EF000008EF0000087B
:1000A000EF000008EF000008EF000008950A0008C4
:1000B000E90A000800000000000000000000000045
:1000C0000348854600F048F80048004771110008D1
:1000D0005811002080F308887047000004488047CA
:1000E00004480047FEE7FEE7FEE7FEE7FEE7FEE71F
:1000F000850A0008C100000830B50B460146002003
:100100002022012409E00D46D5409D4205D31D461D
:100110009540491B2546954040191546521E002D15
:10012000F1DC30BDD2B201E00270401C491EFBD2AE
:1001300070470022F6E710B513460A4604461946F2
:10014000FFF7F0FF204610BD421C0178401C00293B
:10015000FBD1801A70470000064C0125064E05E0D1
:10016000E36807CC2B430C3C98471034B442F7D3D8
:10017000FFF7AAFF201300084013000830B504461B
:100180000020651803E02178641C00F0D5FCAC4227
:10019000F9D3002100F0D0FC002100F0CDFC30BDEF
:1001A00003494A6901231B04184302434A6170470B
:1001B00000200240044A5069F8239843C9000143D3
:1001C00002480143516170470020024002000100D3
:1001D00030B505494C6901252C434C610260BFF3E1
:1001E0006F8F436030BD00000020024030B50B4CE3
:1001F000002362690125AD042A436261EFF3108296
:1002000072B620C95B1C20C0DBB2402BF9D3206939
:10021000C003FCD482F3108830BD000000200240EF
:10022000F8B5054600F0CCF8471901263604114C04
:1002300003E000F0C5F8B84214D220693042F8D18A
:1002400021690D4801400D48206103D00C484160F0
:100250000120F8BD00F0B4F8451905E000F0B0F851
:10026000A84201D30320F8BD20694003F6D4002042
:10027000F8BD000000200240FA830000FB8300006C
:100280001800002002480169022291430161704771
:1002900000E000E0F8B51F4E044630780F46012814
:1002A0000AD001203070002070607D20C000FFF770
:1002B000B7FF002802D029E00220F8BD04216160C8
:1002C0002268042A03D0491F3960A56814E0084653
:1002D000FFF766FF7D20C000FFF7A2FF16E029466A
:1002E0006068FFF767FF7D20C000FFF799FF0028D7
:1002F00001D03D6005E06D1CE268A1688918A94243
:10030000EDD805494A6902239A434A6100213170B8
:10031000F8BD00001800002000200240054901201F
:100320004A69C3071A434A614969002900DA002073
:100330007047000000200240F0B51FB4144C064680
:100340002078154601280AD00120207000277D2042
:10035000C0006760FFF764FF002803D010E00220B0
:1003600005B0F0BD012E0DD029460198FFF73EFFE4
:100370007D20C000FFF754FF06494A69B2434A6135
:100380002770EDE72A46039B0198FFF721FFEFE76F
:100390001800002000200240064900204A69002A77
:1003A00007DA054A8A60054A8A604969002900DA45
:1003B000012070470020024023016745AB89EFCD43
:1003C00001480068704700000000002002480168F2
:1003D000491C0160704700000000002005480449E6
:1003E000416100218161052101610721016170479F
:1003F0007F3E000000E000E0FEE70000F3B50024CF
:10040000104F81B02646254639460298FFF774FE04
:10041000019A3030105502910A213846641CFFF7CA
:100420006BFE0746019800192038C07F302801D1A3
:10043000002E04D0761C6D1C0A2DE5D3FEBD0024D1
:10044000F9E7000000CA9A3BF0B500244CE0012314
:10045000A3401A4047D04B68012B01D0022B0FD18B
:100460008E688568134653435F00DF19BD437343AD
:100470001D438560CB684568534395431D434560E4
:100480000F69C668134653435D005D19AE435F4371
:100490003E43C6604E68022E1FD1FF2A0ED8174673
:1004A0004A69066A94461A467A437A431701BF1A84
:1004B000BE4367467A43164306620EE0160A32468A
:1004C00072434F6972437243BC461601B71A466ABB
:1004D000BE4367467A43164346624A6806685343FA
:1004E000AE431E430660641C0A681346E340AED167
:1004F0000020F0BD08B504494A6B02434A63496BCA
:100500000140009108BD00000010024010B57D219F
:10051000C900FFF7F1FD0449401E486100208861D1
:100520000520086110BD000000E000E010B50446A1
:1005300000F002F9206000F0DFF8606000F0ECF8F5
:10054000A06010BD014610B50020032913D1134A45
:10055000516903238907890F1B041943DB43C91819
:100560000AD001290BD0022911D000F0E5F800F0E3
:10057000C3F800F0D1F810BD00F0DEF810BD074957
:10058000403909684905C90FF8D0054810BDD1693F
:100590008907C90FFAD00120C00310BD40100240E6
:1005A0000024F400014908607047000004000020A6
:1005B00041680922D2029143416081682A22914315
:1005C0008160704702460E4B00200E499A4208D1C6
:1005D00001220B6B920313430B630B6B93430B636F
:1005E0007047094B9A4208D10122CB6A5204134347
:1005F000CB62CB6A9343CB62704701207047000007
:10060000003801400010024000440040FEB504469E
:1006100000680D46012738405CD12969A868EA695D
:10062000084369691143084321682B4A1140084374
:100630002060E96860680322120390430843606009
:10064000A969A068121190430843A060234884421E
:1006500003D10320FFF776FF06E02148844232D120
:100660006846FFF763FF029800282CD06E68002EC2
:1006700029D029680027EA690B2924D80123DB0344
:100680009A4213D109068A0D16498958FFF734FD9D
:100690004000710840183146FFF72EFD81B2124824
:1006A00008400907490F0143E1600CE009068A0D83
:1006B0000C498958FFF720FD710840183146FFF7B3
:1006C0001BFD80B2E0602888E16A80B20909090157
:1006D0000143E1623846FEBDF369FFEF0038014097
:1006E000004400403C120008F0FF000010B500F08C
:1006F000B9F810BDFEE77047054989688A093C21B1
:100700000A400A400349895CC906C90EC8407047BF
:10071000001002406C12000805498968054A490426
:10072000490F8900515CC906C90EC84070470000D6
:1007300000100240AC12000810B50B49886838223E
:10074000104008280AD010280AD008680121800427
:10075000400F81400548FFF7CFFC10BD044810BD95
:1007600000F008F810BD0000001002400024F40062
:1007700000127A0010B50D4AD0680D498007800F2D
:10078000022802D0032800D14910D068440FD06855
:100790004006430FD068641C4004400E4843591C77
:1007A000FFF7AAFC2146FFF7A7FC10BD001002408E
:1007B0000024F400F7B582B000240C600F46064612
:1007C00001216846049A00F0E7FC054601281BD188
:1007D0006846007818281BD005DC012806D00228BE
:1007E00006D0042800D0002530700DE0802401E000
:1007F0000124A4023070211DB01C049A00F0CCFC2E
:100800000546012815D000243C60284605B0F0BDFF
:1008100001216846049A00F0BFFC012803D1684614
:100820000078182803D0684600250078DCE7022409
:10083000DAE7F078B178FF22504081420DD13019CB
:10084000017940790902401801902146301DFFF7D7
:1008500095FC014601988142D6D000242546D3E775
:10086000704700001FB50020009001900290039097
:1008700003A800F073F9002807D0052822D0042827
:1008800022D0022824D013A01FE01A4800F090F8CC
:10089000194800F08DF868460399FFF7AFFD17A0DF
:1008A00000F086F8684600F083F817A000F080F8A2
:1008B00018A000F07DF800F099FA72B61B4800F01D
:1008C00033FC1FBD1AA000E029A000F071F81FBD85
:1008D0002EA0FAE70A0D4661696C656420746F20EA
:1008E00072656365697665207468652066696C6504
:1008F000210A0D00CC120008FE0800200A0D20532A
:10090000697A653A200000002042797465730D0A07
:10091000000000002D2D2D2D2D2D2D2D2D2D2D2DBB
:100920002D2D2D2D2D2D2D0A000000000028000852
:100930000A0A0D54686520696D6167652073697ADC
:100940006520697320686967686572207468616EE4
:100950002074686520616C6C6F77656420737061CA
:100960006365206D656D6F7279210A0D00000000CE
:100970000A0A0D566572696669636174696F6E2053
:100980006661696C6564210A0D0000000D0A0A4168
:10099000626F7274656420627920757365722E0AC5
:1009A0000D00000001B50121684600F01FFC08BDE4
:1009B00010B5002101E0491C89B2425C002AFAD13D
:1009C00000F014FC10BDF0B5054600242B7820463D
:1009D0002246302B2CD16B78782B01D0582B27D185
:1009E00002241AE01E46413E052E06D91F46613FED
:1009F000052F02D93137092F13D81F461201303F76
:100A0000092F01D83B4604E0052E01D8373B00E012
:100A1000573BD218641C0B2C04D22B5D002BE1D168
:100A200003E000202B5D002B01D101200A60F0BD06
:100A30002B5D002B0ED06B2B01D04B2B03D1002C48
:100A400001D0920206E06D2B01D04D2B05D1002C78
:100A500003D0120501200A6007E01E46303E092E31
:100A600009D80A267243303A9A18641C0B2CDED23D
:100A70000128DDD1F0BD0020F0BD00B5FFF7A6FCD8
:100A800000BD000001200249C006886070470000D8
:100A900000ED00E038B5104CE0698006C00F11D0C1
:100AA00020688006C00F0DD0606A0D490B4B0A8884
:100AB0009854521C90B20B4A0880904201D30020F7
:100AC000088038BD1B2000F003F9E0690090400762
:100AD000F7D50420206238BD0038014034000020E2
:100AE000080000209808000038B5104CE069800626
:100AF000C00F10D020688006C00F0CD0606A0D496E
:100B00000B4B4A889854521C90B24880322801D32B
:100B10000020488038BD1C2000F0DAF8E069009021
:100B20004007F7D50420206238BD00000044004093
:100B3000CC08002008000020074AFF3101314000A6
:100B40004900CB0500D5401CC30300D55040CB0362
:100B5000F5D580B27047000021100000F1B50027E4
:100B600090B051494F4808973D463C46086091E097
:100B7000002006460B9089E04C4A0CA94C48FFF730
:100B800019FE01280AD00898002800D06D1C052DF8
:100B900079D91820FFF706FF182075E00C9A002578
:100BA000002A0ED0022A07D041490B988B78C0B298
:100BB00083420BD0152067E00620FFF7F3FE0224E6
:100BC00064E00620FFF7EEFE01265FE00B980028A8
:100BD0000CD035480068091D00F0C8F8324800689C
:100BE0000C9941183048016006203DE00879002842
:100BF00043D000202F4B091D02E01A54401C491C11
:100C00000A78002A01D04028F7D300221A5410464F
:100C100004AB01E01A54401C491C0A78202A01D078
:100C20001028F7D3002119540DA91846FFF7CBFE61
:100C300010982149006888420BD91820694608722B
:100C4000012102A800F0D2FA012102A800F0CEFA98
:100C500005241B21134800F0CFF810980D9901606E
:100C60000620FFF79FFE4320FFF79CFE0B98401CD9
:100C70000B900120089009E005E00620FFF792FEA6
:100C80000126374602E04320FFF78CFE3046204322
:100C900000D171E73846204300D169E7204611B002
:100CA000F0BD00000028000810000020B80B000074
:100CB0003E090020FE08002001D8000010B5024ABD
:100CC000024900F024F810BD151100080C000020A6
:100CD000002809DBC106C90E0120884003490860CD
:100CE000BFF34F8FBFF36F8F7047000080E100E0CC
:100CF00002E008C8121F08C1002AFAD170477047E5
:100D0000002001E001C1121F002AFBD17047F8B595
:100D100016460F460446002503E03946B047641CDA
:100D20006D1C20780028F8D12846F8BD04480549F4
:100D30004068884201D001207047002070470000C1
:100D4000440D0020AAAAAAAA70B5074D0024601974
:100D500000F070F8FF2801D0012070BD641CE4B2DF
:100D6000202CF4D3002070BD00380008F8B5002412
:100D70000E460546002A26D0500702D0D208D200DF
:100D80000832D7081DE0E000315C821950785379B1
:100D90000002084391781B0209040143D078000641
:100DA000084311790B439179D27909041943130649
:100DB0000B4300210A184B41284600F03DF8641C03
:100DC0000835A742DFD8F8BD70B5064D064E0024A1
:100DD000601900F02FF83055641CA4B2102CF7D322
:100DE00070BD000000180008440D002010B500F090
:100DF0007DF8FFF747FA10BD30B50D4685B00021EC
:100E000004911F21C9064018C40AFFF7C5FA022041
:100E1000009004A9039502946846FFF73BFA002866
:100E200004D0FFF77BFA002005B030BDFFF776FA5B
:100E30000120F9E70078704770B516461C46054654
:100E4000FFF7AAFA3246234629460120FFF774FA33
:100E5000002803D0FFF762FA002070BDFFF75EFAAA
:100E6000012070BD08B50C48012102680A430260E8
:100E7000006808400090084809074038C26B0A43E0
:100E8000C263C06B0840009000F008F8FFF7A6FAB4
:100E900000F036F808BD00004010024010B51148BF
:100EA000016882151143016001684905C90FFBD033
:100EB00081680F221202914381608168C908C900CC
:100EC0008160382281681142FCD1816807221203B7
:100ED00091438160044C2046FFF718FB2046FFF742
:100EE00061FB10BD001002400024F40010B51C206E
:100EF000FFF7EEFE0148FFF765FB10BD0044004020
:100F0000F0B58FB0202106A8FFF713F91821684625
:100F1000FFF70FF92E480121C26B49040A43C2634F
:100F2000C06B08400E900120FFF7E4FA0125042071
:100F30000024059500900227052002940394694639
:100F4000019704940007FFF77FFA08260520009612
:100F50000294039469460007019705950494FFF7EE
:100F600073FA1C480168090A090201601A49280736
:100F70000860E120400207900894069409940A94BE
:100F80000C940D940C20154C0B9006A92046FFF7ED
:100F90003DFBA068C000C008A060A068072149060A
:100FA0008843A0602068E104884320602046FFF762
:100FB000FFFA206828432060E0698002C00FFBD060
:100FC000E0694002C00FF7D026620FB0F0BD00000C
:100FD000001002401CE400E000E100E0004400409A
:100FE00010B50022084B08E0DC692406E40FFBD0B2
:100FF00004789C62521C92B2401C8A42F4D3D86995
:101000004006C00FFBD010BD0044004010B5FFF7F4
:101010008DFE002811D0FFF797FE002809D008A008
:10102000FFF74CFEFFF7E2FE72B6144800F07CF8C2
:1010300010BD13A0FFF742FE10BD20A0FAE700008C
:101040006170702065786973742C206A756D7020EA
:10105000746F206170702E2E2E2028617070206EAB
:1010600065766572206572617365642026207661FD
:101070006C696420617070290D0A00000028000866
:10108000617070206E6F742065786973742C20779E
:101090006169742E2E2E2028617070206E65766531
:1010A00072206572617365642026206E6F20766100
:1010B0006C696420617070290D0A000061707020F5
:1010C0006E6F742065786973742C20776169742E53
:1010D0002E2E202861707020657261736564290D61
:1010E0000A00000008B500204B220090D200022127
:1010F000684600F051F8012807D168460078732847
:1011000003D168464078742801D0002008BD012032
:1011100008BD00000349CA691206D20FFBD0C2B253
:101120008A6270470044004010B50168074A1140C8
:1011300001225207914207D14168054C21600068A5
:10114000FEF7C8FF2068804710BD00000000FE2F9A
:101150001400002072B6BFF34F8F04490248C860E4
:10116000BFF34F8F00BFFDE70400FA0500ED00E07C
:10117000FFF778FEFFF728FEFFF7B4FF002801D144
:10118000FFF744FFFFF7B2FA00F034F80128FBD173
:10119000FFF7E0FFF8E70000F7B582B016460F460C
:1011A000FFF70EF90025104C019019E0002E05D034
:1011B000FFF706F90199401AB04202D9002005B0A4
:1011C000F0BDE0690090000701D508202062E069C9
:1011D0008006C00FEAD0606A029948556D1CADB216
:1011E000BD42F4D30120EAE70044004010B5FFF708
:1011F000F7FE10BDF8B5002569462C460D700DA60A
:101200000EE0322201216846FFF7C6FF01280ED109
:101210006946305D0978884209D10125641CE4B231
:101220003046FEF791FFA042EBD82846F8BD0025D6
:10123000FBE700007265626F6F7400000100000040
:10124000020000000400000006000000080000008A
:101250000A0000000C000000100000002000000048
:1012600040000000800000000001000000000000BD
:10127000000000000000000000000000000000006E
:10128000000000000000000000000000010000005D
:10129000020000000300000004000000060000003F
:1012A0000700000008000000090000000000000026
:1012B000000000000000000000000000010000002D
:1012C0000200000003000000040000000A0A0D20D4
:1012D00050726F6772616D6D696E6720436F6D70DC
:1012E0006C65746564205375636365737366756CB0
:1012F0006C79210A0D2D2D2D2D2D2D2D2D2D2D2DE2
:101300002D2D2D2D2D2D2D2D2D2D2D2D2D2D2D2D0D
:101310002D2D2D2D2D0D0A204E616D653A200000DA
:10132000401300080000002018000000F00C000826
:10133000581300081800002040110000000D00089C
:10134000000000000024F400000000000000000085
:08135000000000000000000095
:04000005080000C12E
:00000001FF
