:020000040000FA
:101C0000F0020020D51C0000EF1C0000E9200000BD
:101C100000000000000000000000000000000000C4
:101C2000000000000000000000000000F31C0000A5
:101C30000000000000000000F51C0000F71C000080
:101C4000F9200000032100000D21000017210000F1
:101C5000212100002B210000352100003F21000040
:101C6000F91C0000F91C000049210000532100006C
:101C70005D21000067210000712100007B21000030
:101C800085210000F91C00008F210000992100002F
:101C9000A3210000AD210000B7210000F91C0000C5
:101CA000C1210000F91C0000CB210000D52100005B
:101CB000DF210000F91C0000E9210000F3210000F1
:101CC0000348854600F07AF800480047E11D00000F
:101CD000F002002009480A4A002100A1814200D9EF
:101CE0000244084802600848804708480047FEE769
:101CF000FEE7FEE7FEE7FEE7FEE70000000000204B
:101D0000001C000008ED00E049280000C11C000094
:101D100030B50B46014600202022012409E00D4683
:101D2000D5409D4205D31D469540491B254695400B
:101D300040191546521E002DF1DC30BD03460B4301
:101D40009B0703D009E008C9121F08C0042AFAD271
:101D500003E00B780370401C491C521EF9D27047F7
:101D6000D2B201E00270401C491EFBD27047002233
:101D7000F6E710B513460A4604461946FFF7F0FF8A
:101D8000204610BD30B505462A460B4610781C7813
:101D9000521C5B1C002801D0A042F7D0002C03D0BD
:101DA000002802D06D1CEFE7284630BD421C0178A8
:101DB000401C0029FBD1801A70470000064C012509
:101DC000064E05E0E36807CC2B430C3C98471034E3
:101DD000B442F7D3FFF778FF7C3000009C3000005E
:101DE00010B500F031FD01F09BF8002010BD00009F
:101DF00010B504463948006B0007C00F00280CD00E
:101E000037488068002802D03549886880473348C1
:101E1000406B08218843314948633048006B4007D4
:101E2000C00F00280CD02E48C068002802D02C49D2
:101E3000C86880472948406B042188432749486384
:101E40002648006B8007C00F00280CD0244800698A
:101E5000002802D02249086980472048406B0221AF
:101E600088431E4948631D48006BC007C00F002807
:101E70000CD01B484069002802D0194948698047A6
:101E80001648406B40084000144948631348006BF3
:101E9000C006C00F00280CD011484068002802D0AE
:101EA0000F49486880470D48406B102188430B4913
:101EB00048630A48006B8006C00F00280CD0084811
:101EC0000068002802D00649086880470348406B34
:101ED000202188430149486310BD00008024004050
:101EE000300000200749086000BF0649096909075A
:101EF000C90F0029F9D00349496902229143014AD7
:101F0000516170470001004010B504460348006865
:101F1000002802D001480068804710BD0C00002056
:101F200001460020144A126A520052080123DB07BE
:101F3000D218114B1A62114A114BDA62114ADA6255
:101F4000002906D11A46126A0C239A430C4B1A62D6
:101F500010E0012907D10A4A126A0C239A43121D84
:101F6000074B1A6206E0064A126A0C239A430832AB
:101F7000034B1A6270470000002000405A5A0000CC
:101F800000000240A5A5000030B503464E481818D1
:101F9000C06801248C40A0434B4C1C19E060002019
:101FA0004A4C1C198D0060511078012809D146480F
:101FB0001818006801248C402043434C1C192060F1
:101FC00008E041481818006801248C40A0433E4CAA
:101FD0001C1920605078002809D13B481818C069A6
:101FE00001248C40A043384C1C19E06108E03648BD
:101FF0001818C06901248C402043334C1C19E0613F
:102000009078012812D130481818006A01248C40B9
:1020100020432D4C1C1920622B481818406A0124BB
:102020008C40A043284C1C19606227E0907802285D
:1020300012D125481818006A01248C40A043224C74
:102040001C19206220481818406A01248C40204343
:102050001D4C1C19606211E01B481818006A01240D
:102060008C40A043184C1C19206217481818446A69
:10207000012088408443144818184462D07800280E
:1020800009D111481818C06A01248C40A0430E4C95
:102090001C19E06208E00C481818C06A01248C4042
:1020A0002043094C1C19E062094880680124E403BC
:1020B000A0431479E4030125ED032C402043044C94
:1020C000A060002030BD0000000D0240000C024066
:1020D000000F024010B50346024818188C00025148
:1020E000002010BD000C024008B50020009000BF89
:1020F00000980028FCD008BD10B50020C046C0469E
:1021000010BD10B50120C046C04610BD10B502205C
:10211000C046C04610BD10B50320C046C04610BD25
:1021200010B50020C046C04610BD10B50020C04606
:10213000C04610BD10B5002000F0A6FB10BD10B5C4
:10214000012000F0A1FB10BD10B50020C046C04624
:1021500010BD10B50120C046C04610BD10B500200E
:10216000C046C04610BD10B50120C046C04610BDD7
:1021700010B50020C046C04610BD10B50120C046B5
:10218000C04610BD10B50220C046C04610BD10B5F7
:102190000420C046C04610BD10B50520C046C0464C
:1021A00010BD10B50620C046C04610BD10B50020B9
:1021B000C046C04610BD10B50020C046C04610BD88
:1021C00010B50020FFF714FE10BD10B50020C0466A
:1021D000C04610BD10B50120C046C04610BD10B5A8
:1021E0000020C046C04610BD10B50020FFF78CFE91
:1021F00010BD10B50020C046C04610BD08B5002077
:10220000FFF78EFE002000F031FA002168460170D1
:102210004170817000F019F8002000F087FA012168
:10222000022000F047F8022000F0C8FA022000F077
:102230001DFA0121002000F03DF8002000F0BEFA58
:102240000021022000F036F808BD70B504460025D4
:102250002078030000F0B0FB0504050C10181C00EA
:1022600018E0032000F0C0FA032000F087FA11E024
:10227000032000F049FA0DE00321084600F0C2FAFD
:10228000032000F08BFA05E0072000F0BFF901E021
:10229000042500BF00BF2078012100F00BF8207852
:1022A00000F08CFA607800F085F9A07800F098F9D9
:1022B000284670BDF8B505460C46002700F034FBF3
:1022C000002C01D0012000E0002004462B0000F08B
:1022D00073FB050417394D749C004E480068400894
:1022E0004000E107C90F08434A49086000BF002CBD
:1022F00005D04848C0680005C00F0028F7D086E028
:102300004548C06840084000401C4349C860084632
:10231000C06802218843801C3F49C8603D4800686E
:1023200002218843610002221140084339490860B4
:1023300000BF002C05D0374800694006C00F0028B8
:10234000F7D064E03348006804218843A1000422E8
:10235000114008432F49086000BF002C05D02D48CC
:102360004069C004C00F0028F7D050E02A48403828
:10237000C068012189038843401827494039C86053
:102380000846C0680121C9038843401822494039E2
:10239000C8602048006808218843E10008221140F5
:1023A00008431C49086000BF002C05D0194880690B
:1023B0004006C00F0028F7D029E01648066A006AD8
:1023C0000121090488434018124908621348006833
:1023D00040084000401C11490860022000F098FCB1
:1023E0000C48066200681021884321011022114028
:1023F00008430849086000BF002C05D00548C06BA1
:102400004003C00F0028F7D001E0042700BF00BF41
:102410003846F8BD00200040C00D024000240040B6
:1024200030B589B000241422564904A8FFF786FC71
:1024300054481430006803900020009001900290EE
:1024400051480188684601814F4841886846C180EB
:102450004D488188684681804B48C18868464180E4
:1024600049482030018868460180484800680006D5
:10247000450F2B0000F0A0FA05042E303E417800F5
:102480004248C0684005400D69460989884201D12B
:10249000089C1EE03D48C0684005400D6946C9885B
:1024A000884201D1079C14E03848C0684005400DBF
:1024B00069468988884201D1069C0AE03348C06891
:1024C0004005400D69464988884201D1059C00E0DD
:1024D000049C4BE02E4C49E0684600882B49496932
:1024E0008905890D884202D16846C48901E06846A1
:1024F00084893BE00124E40338E02448C06B800772
:10250000800F032829D1684600892049C9684905F8
:10251000490D884201D1089C20E06846C0881B49CB
:10252000C9684905490D884201D1079C16E06846F3
:1025300080881649C9684905490D884201D1069C21
:102540000CE0684640881149C9684905490D884230
:1025500001D1059C02E0049C00E00D4C0B48C06BCF
:10256000C005000F444301E0002400BF00BF07483E
:1025700000684005410F2046C8400446204609B087
:1025800030BD000048300000000C1000002000406A
:102590000048E80110B50024FFF742FF0446044854
:1025A0000068C004810F2046C8400446204610BD84
:1025B0000020004070B50446002500F0B5F907483A
:1025C00000680721090288432102072212021140F4
:1025D000084302490860284670BD00000020004002
:1025E00070B50446002500F09FF9074800680321F4
:1025F000C9028843E1020322D20211400843024982
:102600000860284670BD00000020004010B501465B
:102610000020064AD26B0723DB039A43CB0307242F
:10262000E40323401A43014BDA6310BD002000404D
:1026300010B502460020002901D0012300E000234C
:102640001946002907D0084B1B6A012494402343F4
:10265000054C236206E0044B1B6A01249440A3430B
:10266000014C236210BD00000020004010B501465F
:1026700000200B0000F0A0F90504101C28344000D5
:102680001F4B1B895A05520D1E4BDB68DB0ADB0210
:1026900013431C4CE36031E0194BDB885A05520DA3
:1026A000184BDB68DB0ADB021343164CE36025E0C2
:1026B000134B9B885A05520D124BDB68DB0ADB0279
:1026C0001343104CE36019E00D4B5B885A05520D23
:1026D0000C4BDB68DB0ADB0213430A4CE3600DE0C2
:1026E000074B1B885A05520D064BDB68DB0ADB02E1
:1026F0001343044CE36001E0042000BF00BF10BDA1
:10270000000C10000020004010B501460020064AD1
:10271000526903239B029A438B020324A4022340A1
:102720001A43014B5A6110BD0020004010B501460C
:102730000020002902D0012918D10BE00D4B5B8845
:102740009A05920D0C4B5B699B0A9B0213430A4C42
:1027500063610DE0074B1B889A05920D064B5B6980
:102760009B0A9B021343044C636101E0042000BFF9
:1027700000BF10BD200C10000020004010B5014625
:102780000020054A126930239A430B01302423406C
:102790001A43014B1A6110BD0020004010B50146DC
:1027A0000020054A926930239A430B0130242340CC
:1027B0001A43014B9A6110BD0020004070B50446D9
:1027C0000025264600F0B0F806480068E02188435E
:1027D0007101E022114008430249086000F02CF822
:1027E000284670BD0020004001460020044A1269BE
:1027F000920892008B079B0F1A43014B1A61704796
:102800000020004030B5024600200A4B9B690C2492
:10281000A34394000C252C402343064CA36123467C
:102820009B699B089B008C07A40F2343014CA36169
:1028300030BD00000020004010B5FFF7F1FD014958
:10284000086010BD0000002010B50D4949888805BA
:10285000800D0C494969890A89020143094A51617D
:102860000749203909894805400D1146C968C90A38
:10287000C9020143D160FFF7DFFF00F053F810BD3C
:10288000200C10000020004010B502460021204816
:102890000069C007C00F002818D01D4840694008D3
:1028A00040001B4B586100F05DF801461948038851
:1028B0000088401C174C20801748C15420460088CF
:1028C000322824DB00202346188020E001208007E6
:1028D0000069C007C00F002819D001208007406997
:1028E0004008400001239B07586100F029F8014689
:1028F0000A4803880088401C084C20800848C154BE
:10290000204600880A2802DB00202346188010BDDC
:1029100000010040100000204800002012000020AC
:102920007A0000207047000002480349886003488D
:10293000886070475A5A000000200040A5A500009A
:10294000012080070068C0B27047000000200449E1
:1029500009698907C90F0122514051400846704753
:102960000001004001480068C0B27047000100400B
:102970000FB410B503A9044B044A029800F091F873
:1029800010BC08BC04B01847E12D0000080000206E
:102990000FB410B504A9074B02AA039800F081F800
:1029A000044602A9002000F0E5F8204610BC08BC4F
:1029B00004B01847752B000030B47446641E2578A7
:1029C000641CAB4204D3635D5B00E31830BC184762
:1029D0001D46F8E7002805DBC206D20E0121914012
:1029E000014A11607047000080E200E0002809DB26
:1029F00000BF00BFC206D20E01219140024A116001
:102A000000BF00BF7047000000E100E010B50028E3
:102A100019DB1A4A03231B02D21883089B00D258E1
:102A20008307DC0EFF23A3409A438B071B0E84070A
:102A3000E40EA3401A43114B032424021B198408FB
:102A4000A4001A5118E00E4A03071B0F083B9B080D
:102A50009B00D2588307DC0EFF23A3409A438B07C9
:102A60001B0E8407E40EA3401A43054B0407240FF2
:102A7000083CA408A4001A5110BD000000E100E0C9
:102A80001CED00E002E008C8121F08C1002AFAD1BC
:102A900070477047002001E001C1121F002AFBD1DE
:102AA0007047FFB581B00546002706E025280AD00B
:102AB000049A039990476D1C7F1C28780028F5D153
:102AC000384605B0F0BD002269786D1C10462E29ED
:102AD00013D1697804226D1C2A2909D102996D1C31
:102AE00001C9029109E00A235843303808186D1CC7
:102AF00029780B46303B092BF5D92B78002BDFD0FA
:102B0000632B07D0732B10D0049A18460399904773
:102B10007F1C2DE002996C460B782370091D0291F1
:102B2000002161706E46012104E0029940C90291C2
:102B30000021C94352070AD5002400E0641C8442E6
:102B40000DDA8C42FADB325D002AF7D107E000246F
:102B500000E0641C8C42FCDB305D0028F9D13F1999
:102B600004E03078049A761C03999047641EF8D2EA
:102B70006D1CA2E70A68531C0B601070704710B5FB
:102B8000FFF73CFB102000F0F1F800F027F862B6E8
:102B900010BD1CB50521684600F0AAF801211C20D3
:102BA000FFF746FD0021684601706A4602210020B9
:102BB000FFF7EAF9012202210020FFF78BFA012139
:102BC000684601706A4603210020FFF7DDF9012203
:102BD00003210020FFF77EFA1CBD000070B5002421
:102BE0000025FFF7D6FF01210846FFF721FD224807
:102BF0004068C021884340301F494860084640680B
:102C00000321890388431C49486007263046FFF7A3
:102C1000E1FE03213046FFF7F9FE3046FFF7E6FEFE
:102C2000154840680121490288434018124948600C
:102C3000FFF7B0FC054629464B20C00100F09AF989
:102C400004460D4884614069022188430A4948616D
:102C50000846406940084000486108464068102125
:102C600088431030044948600846406840084000E6
:102C7000401C486070BD00000001004070B5054672
:102C80000E46002400BF04E0285D00F005F8601C3B
:102C900084B2B442F8DB70BD00B503460948006851
:102CA000000A0002D9B208430649086000BFFFF7D6
:102CB0004DFE0028FBD003484069022188430149AA
:102CC000486100BD0001004010B56C210548FFF7C8
:102CD0004EF832210448FFF74AF8002003490880E3
:102CE00010BD0000840000204800002010000020DB
:102CF00010B50A460146002900D110BD02E00023AC
:102D00000B70491C1346521E002BF8D100BFF4E78C
:102D100070B50546114812494861002088610520B8
:102D200008610FE000200E4988610E490E480068D6
:102D3000FEF7EEFF012109060C1A00BF0848806962
:102D4000A042FBD828466D1E0028EBD1044800693C
:102D5000400840000249086170BD0000FFFFFF000D
:102D600000E000E0A086010000000020014908709A
:102D7000704700000400002030B50446002504E040
:102D80007D20C00000F004F86D1CA542F8D330BDD2
:102D90000146114A12784A43104B5A6100229A6147
:102DA0001A46126905231A430C4B1A6100BF0B4ADD
:102DB0001069C207D20F002A04D001221204024077
:102DC000002AF4D0054A126952085200034B1A61D6
:102DD00000229A61704700000400002000E000E03B
:102DE00010B503460C46D8B20A2802D10D20FFF7D1
:102DF00079F8D8B2FFF776F8184610BD10B500F094
:102E000013F80649086000F00BF804460348214611
:102E100002680830FEF792FF10BD00008400002019
:102E200000487047480000200148008870470000B3
:102E30001000002070B58EB005460E46342101A862
:102E4000FEF795FF07A20BA101A8FFF7A1FD01A8BE
:102E5000FEF7ACFF84B2214601A800F0C7F80EB01F
:102E600070BD0000596D6F64656D5F4170705F30BB
:102E7000303100006765745F76657273696F6E3D0F
:102E800025733B00F0B58DB006460F4634216846E9
:102E9000FEF76DFF13A16846FFF77AFD6846FEF75F
:102EA00085FF84B22146684600F0A0F8002414E0B3
:102EB00034216846FEF75BFFE0000D490A580DA17A
:102EC0006846FFF765FD6846FEF770FF85B2294644
:102ED000684600F08BF8601CC4B2032CE8D30DB038
:102EE000F0BD0000636D64206C6973743A0D0A00D4
:102EF0001400002025730D0A0000000072B600BF08
:102F0000BFF34F8F04480549C860BFF34F8F00BF20
:102F100000BF00BFFDE700000400FA0500ED00E07F
:102F20000024FFF72CFE09A0FFF722FD0DE014207E
:102F3000FFF722FF00F076F8601C80B20446FA2802
:102F400003DB002405A0FFF713FDF0E70D0A206561
:102F50006E746572206170700D0A000072756E2EBD
:102F60002E2E0D0A0000000070B504460D46FFF736
:102F7000C5FF70BDF8B504460D4600270026094878
:102F800040688005C60F002E01D1102600E00826FB
:102F90002046704301462846FEF7BAFE07463846EB
:102FA000F8BD00000001004070B5002415E0E0000D
:102FB0000C4A11580C48FEF7E5FE0546002D0AD0D4
:102FC00009480838008881B2E000064BC018426802
:102FD0000548904770BD601CC4B2032CE7D300BF06
:102FE000F8E70000140000208C00002070B50546B2
:102FF0000C46224629460648FEF7A0FE04483A3809
:103000004460808881B20248FFF738FE70BD00003E
:10301000BE00002010B5FFF7F1FEFFF7C5FFFFF778
:1030200053FE10BD10B5FFF7FFFE0446002C07D07D
:1030300004480088844201D1FFF7ECFF0148048076
:1030400010BD00002C00002000093D0000127A0095
:103050000024F4004086510100366E010080009685
:103060006765745F76657273696F6E0068656C7012
:10307000000000007265626F6F7400009C300000F9
:103080000000002030000000842A0000CC30000046
:1030900030000020C0020000942A000000093D001A
:1030A0000000000000000000000000000000000020
:1030B0006C300000852E000074300000692F000085
:0C30C00060300000352E00000000000011
:0400000500001CC11A
:00000001FF
