:020000040800F2
:1000000058110020510100080B080008E504000801
:1000100009080008ED010008250D00080000000097
:100020000000000000000000000000009709000828
:1000300019020008000000000D080008B10B0008BC
:100040006B0100086B0100086B0100086B010008E0
:100050006B0100086B0100086B0100086B010008D0
:100060006B0100086B0100086B0100086B010008C0
:100070006B0100086B0100086B0100086B010008B0
:100080006B0100086B0100086B0100086B010008A0
:100090006B0100086B0100086B0100086B01000890
:1000A0006B0100086B0100086B0100086B01000880
:1000B0006B0100086B0100086B0100086B01000870
:1000C0006B0100086B0100086B0100086B01000860
:1000D0006B010008590C0008B10C00086B01000806
:1000E0006B0100086B0100086B0100086B01000840
:1000F0006B0100086B0100086B0100086B01000830
:100100006B0100086B0100086B0100086B0100081F
:100110006B0100086B0100086B0100086B0100080F
:100120006B0100086B0100086B0100086B010008FF
:10013000DFF810D000F048F800480047D51200085A
:10014000AFF300805811002080F30888704700004A
:100150000648804706480047FEE7FEE7FEE7FEE761
:10016000FEE7FEE7FEE7FEE7FEE7FEE7550C0008C8
:1001700031010008202A04DB203A21FA02F0002194
:10018000704721FA02F3D040C2F1200291400843A7
:1001900019467047D2B201E000F8012B491EFBD28C
:1001A00070470022F6E710B513460A460446194682
:1001B000FFF7F0FF204610BD421C10F8011B00297C
:1001C000FBD1801A70470000064C074D06E0E0683E
:1001D00040F0010394E8070098471034AC42F6D38E
:1001E000FFF7AAFF1014000830140008FEE7000013
:1001F00030B504460020651804E000BF14F8011B68
:1002000000F080FDAC42F9D3002100F07BFDBDE899
:100210003040002100F076BD704700000649002004
:10022000C8610648016941F004010161016941F0BA
:1002300040010161704700001800002000200240CA
:10024000064A0021D16106490A6942F002020A61A8
:100250004861086940F040000861704718000020BC
:1002600000200240044B0022DA61044A136943F083
:100270000103136101807047180000200020024034
:1002800014480022C168CB06134904D5CA6942F05C
:100290000202CA611022C3685B0705D5CB6943F02F
:1002A0000103CB6142F00402C369DB0707D0CB69CD
:1002B00043F00403CB61C16921F00101C161A2F5E2
:1002C0008071013901D0C2607047C16921F001011C
:1002D000C1617047002002401800002070B505463B
:1002E00000F0E0F80646114C09E0681C07D025B183
:1002F00000F0D8F8801BA84201D9032070BDE06847
:10030000C007F2D1E068800601D52020E060E068F7
:10031000C00605D4E069C00702D1E068400703D5F4
:10032000FFF7AEFF012070BD002070BD002002402D
:100330004FF0E020016921F00201016170470000E7
:100340002DE9F047054626480F460126017E012982
:100350000FD00121814601762868DFF888804CF2B1
:100360005034022808D0A2462046FFF7B7FFA8B1B4
:1003700031E00220BDE8F0872046FFF7AFFF08BB61
:100380000120FFF74BFF2046FFF7A8FFD8F8101019
:10039000064621F00401C8F810101CE04FF0FF30B1
:1003A0003860AC6811E02046FFF74AFF5046FFF77F
:1003B00095FFD8F81010060021F00201C8F81010BF
:1003C00001D03C6007E004F50064D5E9020100EBD0
:1003D000C120A042E7D8002189F818103046C9E7AB
:1003E00018000020002002400348016941F080010C
:1003F0000161002070470000002002402DE9F05FFD
:1004000007461C4888460024017E15461E460129E1
:1004100009D00121814601764CF2503A5046FFF74F
:100420005DFF18B122E00220BDE8F09F012F02D04D
:10043000022F00D00427D346DFF83CA02201284633
:100440003146FFF797FE81B208EB4400FFF70AFF41
:100450005846FFF743FFDAF8102022F00102CAF8ED
:10046000102018B9641CE4B2BC42E7D3002289F81A
:100470001820D9E71800002000200240064900207B
:100480000A69120607D5054A4A60054A4A600969A1
:10049000090600D50120704700200240230167456E
:1004A000AB89EFCD014800687047000000000020D4
:1004B00002480168491C01607047000000000020EC
:1004C00007484FF47A71B0FBF1F14FF0E020491E7C
:1004D00041610021816105210161072101617047AE
:1004E0000024F400FEE70000F0B500220D4B154695
:1004F00014460A27B1FBF3F630368654B1FBF3F607
:1005000003FB1611B3FBF7F3521C861816F8016CA7
:10051000302E00D125B16D1C641C0A2CEAD3F0BD2D
:100520000022F9E700CA9A3B02490A6902430A61BC
:10053000704700000010024002490A6982430A61C4
:100540007047000000100240044908B58A69024360
:100550008A6189690140009108BD000000100240D5
:10056000F0B50A68C2F30F2595FAA5F2B2FA82F344
:1005700069E001229A402A4264D0082B03D240F25B
:1005800001129A4006E0A3F108024FF001149440D2
:1005900044F080624C68082C0BD10C69C668170ABD
:1005A00097FAA7F7B7FA87F726EA1226BC40264340
:1005B000C66092FAA2F700EB1264B7FA87F74FEA27
:1005C000870C0F27266807FA0CF7BE4392FAA2F7AA
:1005D000D1F804E0B7FA87F7BF000EFA07FE46EA43
:1005E0000E0626604F68012F01D0092F2AD192FAFA
:1005F000A2F7B7FA87F74FEA870C032707FA0CF739
:10060000BE4392FAA2F7B7FA87F7D1F808E0BF0025
:100610000EFA07FE92FAA2FC46EA0E06BCFA8CFC21
:100620004FEA8C0E4FF0040C26600CFA0EFC92FA86
:10063000A2F2B2FA82F2CF68920026EA0C06974044
:100640003E4326605B1C35FA03F292D10020F0BDD8
:100650004FF47A71B0FBF1F14FF0E020491E416197
:100660000021816105210161704700B5034600F05A
:10067000F9F8186000F0CCF8586000F0D7F89860EE
:10068000586800F0E1F8D86000BD0000014908603A
:10069000704700000400002070B51749002488420C
:1006A00009D11648C16841F48041C160C16821F494
:1006B0008041C1601EE01249884202D14FF40035EA
:1006C00010E01049884202D14FF480250AE00E491B
:1006D000884202D14FF4002504E00C49884208D139
:1006E0004FF480152846FFF71FFF2846FFF724FF29
:1006F00000E00124204670BD003801400010024097
:100700000044004000480040004C004000500040C1
:100710002DE9FF410446C0680D460126C0F3403074
:10072000002861D1E9686868E2680843296941F2F4
:100730000C639A4311430843E060A868216921F4DF
:100740004051014321616869616921F440710143AD
:1007500061616846FFF789FF2548844201D103980B
:100760000CE02448844208D02348844205D0234822
:10077000844202D02248844236D10298A0B32A682B
:1007800092B300EBC00101EB00119200B1FBF2F358
:100790006420B3FBF0F36FF018077B43B1FBF2F575
:1007A000B1FBF2F705EB8305322303EB0515B5FB2F
:1007B000F0F5B7FBF0F705F0F00505EB0715B1FB19
:1007C000F2F7B1FBF2F1B1FBF0F100266FF0180285
:1007D000514307EB810103EB0111B1FBF0F000F095
:1007E0000F00284480B2A06004B03046BDE8F0811C
:1007F000003801400044004000480040004C0040E8
:100800000050004000F0C8B8FEE7FEE77047000067
:1008100004494968044A01F0F0010909515CC840E3
:100820007047000000100240A41300080449496802
:10083000044A01F4E06102EB11210978C8407047D5
:1008400000100240B413000804494968044A01F446
:10085000605102EBD1210978C84070470010024076
:10086000B41300080648406810F00C01054805D094
:10087000042903D0082901D100F006B87047000010
:100880000010024000127A000B48416811F48032D7
:100890000A4909D0B2F5803F06D14168084AC1F340
:1008A0004041491CB2FBF1F14068022200F4701093
:1008B00002EB9040484370470010024000093D00A1
:1008C00000127A002DE9F84300240F4606460C601A
:1008D00090460121684600F011FD0546012820D10F
:1008E0009DF80000182820D006DC01280BD0022833
:1008F0000BD0042826D12AE0412827D0612825D012
:1009000072281FD125E0802401E04FF4806430700C
:10091000211D4246B01C00F0F1FC0546012826D0FE
:10092000002428463C60BDE8F88342460121684621
:1009300000F0E4FC012805D19DF80000182801D141
:10094000022404E000259DF8000000E0002530703E
:10095000E7E742460121684600F0D0FC0128F1D1CA
:100960009DF800006528EDD100F0A2FCEAE7F178DF
:10097000B07881F0FF0188420AD1301901794079BD
:1009800000EB01282146301DFFF732FC4045C8D05E
:1009900000242546C5E770471FB500200090019050
:1009A0000290039003A800F0BFF938B1052822D0C7
:1009B000042822D0022824D013A01FE01A4800F0F7
:1009C00091F81A4800F08EF868460399FFF78CFDFD
:1009D00017A000F087F8684600F084F817A000F030
:1009E00081F819A000F07EF800F0E0FA72B61C4819
:1009F00000F048FC1FBD1BA000E02AA000F072F828
:100A00001FBD2FA0FAE700000A0D4661696C6564FE
:100A100020746F207265636569766520746865204F
:100A200066696C65210A0D00BC13000802090020EC
:100A30000A0D2053697A653A20000000204279743B
:100A400065730D0A000000002D2D2D2D2D2D2D2D4F
:100A50002D2D2D2D2D2D2D2D2D2D2D0A000000009D
:100A6000002800080A0A0D54686520696D616765F1
:100A70002073697A652069732068696768657220E8
:100A80007468616E2074686520616C6C6F77656452
:100A9000207370616365206D656D6F7279210A0D39
:100AA000000000000A0A0D56657269666963617488
:100AB000696F6E206661696C6564210A0D00000033
:100AC0000D0A0A41626F7274656420627920757341
:100AD00065722E0A0D00000001B50121684600F084
:100AE0003BFC08BD002101E0491C89B2425C002AA0
:100AF000FAD100F031BC0000F0B5054600242A7898
:100B000020462346302A2ED16A78782A01D0582AE6
:100B100029D102241CE000BFA2F14106052E07D90D
:100B2000A2F16107052F03D91136092E04D913E06C
:100B3000A2F13007092F01D8303A04E0052E01D880
:100B4000373A00E0573A641C02EB03130B2C04D233
:100B50002A5D002AE0D103E000202A5D002A01D1AD
:100B600001200B60F0BD2A5D62B16B2A01D04B2AD7
:100B700002D10CB19B0205E06D2A01D04D2A04D1AF
:100B80001CB11B0501200B600AE0A2F13006092E02
:100B90000CD803EB83036FF02F0606EB43031344DB
:100BA000641C0B2CDED20128DDD1F0BD0020F0BD8D
:100BB000FFF77EBC244810B5016821F007010160F1
:100BC000016811F0070FFBD12048016821F0F801FE
:100BD00041F080010160016841F00101016001689C
:100BE000C1F340010029FAD0416821F47C1141F49D
:100BF00000214160016841F0807101600168C1F32A
:100C000040610029FAD0416821F0F001416041685B
:100C100021F4E0614160416821F460514160416824
:100C200021F0030141F002014160416801F00C0133
:100C30000829FAD1064C2046FFF70AFD2046BDE8F8
:100C40001040FFF723BD00000020024000100240CA
:100C50000024F4007047000038B5124C2068C0F33F
:100C6000401090B1E068C0F3401070B160680F4967
:100C70000D4B0A889854521C90B240F69802088096
:100C8000904201D30020088038BD252000F006F9ED
:100C9000206800904007F7D52068009060680090B9
:100CA00038BD000000380140380000200800002056
:100CB00038B5114C2068C0F3401080B1E068C0F333
:100CC000401060B160680E490C4B4A889854521C21
:100CD00090B24880322801D30020488038BD2620B9
:100CE00000F0DCF8206800904007F7D520680090FD
:100CF0006068009038BD000000440040D00800202B
:100D00000800002041F4807141F2210240004900B6
:100D1000CB0500D5401CC30300D55040CB03F5D50F
:100D200080B27047FEE700002DE9F14F0027DFF8A1
:100D300050A188B0DFF844B13D46B8463C46CAF8F9
:100D400000B093E04FF000094E468BE040F6B83219
:100D500004A94C48FFF7B6FD01280AD0B8F1000FEE
:100D600000D06D1C052D7AD91820FFF7B5FE18208C
:100D700076E0049A002572B1022A07D0414909F0B1
:100D8000FF008B7883420BD0152069E00620FFF727
:100D9000A3FE022466E00620FFF79EFE012661E026
:100DA000B9F1000F0CD0DAF80000091D00F0C6F808
:100DB000DAF8000004990144CAF8001006203EE069
:100DC0000879E8B30020304B091D02E01A54401C9A
:100DD000491C0A780AB14028F8D34FF0000C03F8F8
:100DE00000C060466B4601E01A54401C11F8012F08
:100DF000202A01D01028F7D303F800C006A918460E
:100E0000FFF77AFE08986FF4FB210068C8420BD9FF
:100E100018208DF81400012105A800F09DFA012189
:100E200005A800F099FA0524FB21584600F0C5F802
:100E30000898069901600620FFF74EFE432001E066
:100E400007E00CE0FFF748FE09F101094FF0010847
:100E500008E00620FFF740FE0126374602E0432067
:100E6000FFF73AFE56EA04003FF470AF57EA040079
:100E70003FF468AF09B02046BDE8F08F00280008B5
:100E8000140000204209002002090020014A024902
:100E900000F024B86D1200080C00002000280DDBC3
:100EA00000F01F02012191404009800000F1E02084
:100EB000C0F88011BFF34F8FBFF36F8F704702E010
:100EC00008C8121F08C1002AFAD1704770470020D5
:100ED00001E001C1121F002AFBD170472DE9F0414A
:100EE00016460F460446002503E03946B047641C09
:100EF0006D1C20780028F8D12846BDE8F08100005C
:100F000004484068B0F1AA3F01D00120704700209A
:100F100070470000480D002070B5074D002460198F
:100F200000F064F8FF2801D0012070BD641CE4B219
:100F3000202CF4D3002070BD003800082DE9F041CA
:100F400014000F464FF0000506461AD0A00715D032
:100F500022F00304241D11E007EB850017F825108B
:100F6000427841EA02218278C07841EA024141EAAE
:100F70000061304600F03CF86D1C361DB5EB940F57
:100F8000EAD3BDE8F081000070B5064D064E00249E
:100F9000601900F02BF83055641CA4B2102CF7D364
:100FA00070BD000000180008480D002010B500F0CA
:100FB00069F8BDE81040FFF7BBB970B586B00026F0
:100FC0000C4605460496FFF759FACDE9025404A9E8
:100FD00068460096FFF7B4F920B1FFF705FA002044
:100FE00006B070BDFFF700FA0120F9E700787047FE
:100FF00070B50C460546FFF741FA22460023294604
:101000000220FFF7FBF918B1FFF7EEF9002070BDE1
:10101000FFF7EAF9012070BD164808B5816941F073
:1010200001018161816901F001010091C16941F013
:101030008051C161C069104900F08050009008687B
:101040004FF6FF0210400D4A40F440701043086014
:101050000B48416821F0E0614160416841F0007156
:101060004160FFF7A7FDFFF72BFABDE8084000F04D
:1010700015B80000001002400CED00E00000FA0579
:101080000000014010B52520FFF708FFBDE8104023
:101090000148FFF701BB00000038014030B58DB0BA
:1010A0001C216846FFF77DF8142107A8FFF779F89F
:1010B0004FF48040FFF748FA0420FFF745FA19483B
:1010C00007900920089003200024CDE90904164D5B
:1010D00007A92846FFF744FA14480790042008900F
:1010E00007A92846FFF73CFA4FF4E130CDE90004A8
:1010F0000C200294CDE90340059406940C4C6946FB
:101100002046FFF705FB206920F4904020616069CC
:1011100020F02A006061E06840F40050E0600DB00B
:1011200030BD000002000204000801400400040475
:101130000038014010B50022094B09E01C68C4F3D7
:10114000C014002CFAD010F8014B5C60521C92B213
:101150008A42F3D31868C0F380100028FAD010BD7B
:101160000038014010B5FFF7CBFE002812D0FFF782
:10117000D3FE50B108A0FFF789FEFFF717FF72B644
:101180001448BDE8104000F07DB813A0BDE8104041
:10119000FFF77CBE1FA0F9E7617070206578697366
:1011A000742C206A756D7020746F206170702E2E03
:1011B0002E2028617070206E6576657220657261E0
:1011C00073656420262076616C69642061707029E3
:1011D0000D0A000000280008617070206E6F7420F6
:1011E00065786973742C20776169742E2E2E2028FF
:1011F000617070206E6576657220657261736564DA
:101200002026206E6F2076616C69642061707029E1
:101210000D0A0000617070206E6F7420657869732C
:10122000742C20776169742E2E2E20286170702016
:10123000657261736564290D0A00000008B500201D
:1012400000904FF416720221684600F057F801280A
:1012500007D19DF80000732803D19DF80100742880
:1012600001D0002008BD012008BD000004490A6823
:101270005206FCD5024AC1B2121D1160704700002F
:101280000038014010B50168074A1140B1F1005F14
:1012900009D14168054C21600068FEF755FF2068C0
:1012A000BDE81040004710BD0000FE2F10000020D8
:1012B00072B6BFF34F8F05480168054A01F4E0613B
:1012C00011430160BFF34F8F00BFFDE70CED00E05D
:1012D0000400FA05FFF7A0FEFFF756FEFFF7AEFF8A
:1012E00008B9FFF73FFFFFF78DFA00BF00F036F8AF
:1012F0000128FBD1FFF7DCFFF8E700002DE9F843F8
:1013000016460F468146FFF7CDF880460025114C62
:101310001BE02EB1FFF7C6F8A0EB0800B04202D9DF
:101320000020BDE8F88320680090000703D52068FE
:101330000090606800902068C0F340100028E8D05A
:10134000606809F805006D1CADB2BD42F3D3012001
:10135000E7E7000000380140FFF7ECBEF8B50025D4
:101360002C468DF800500DA60EE032220121684671
:10137000FFF7C4FF01280ED1305D9DF800108842B0
:1013800009D10125641CE4B23046FEF715FFA042E6
:10139000EBD82846F8BD0025FBE700007265626FB8
:1013A0006F74000000000000000000000102030450
:1013B0000607080900000000010203040A0A0D20C4
:1013C00050726F6772616D6D696E6720436F6D70EB
:1013D0006C65746564205375636365737366756CBF
:1013E0006C79210A0D2D2D2D2D2D2D2D2D2D2D2DF1
:1013F0002D2D2D2D2D2D2D2D2D2D2D2D2D2D2D2D1D
:101400002D2D2D2D2D0D0A204E616D653A200000E9
:10141000301400080000002018000000BE0E000874
:10142000481400081800002040110000CE0E0008EB
:10143000000000000024F400000000000000000094
:081440000000000000000000A4
:0400000508000131BD
:00000001FF
