:020000040800F2
:10000000581100204D01000807080008E10400080D
:1000100005080008E9010008210D000800000000A3
:10002000000000000000000000000000930900082C
:10003000150200080000000009080008AD0B0008C8
:1000400067010008670100086701000867010008F0
:1000500067010008670100086701000867010008E0
:1000600067010008670100086701000867010008D0
:1000700067010008670100086701000867010008C0
:1000800067010008670100086701000867010008B0
:1000900067010008670100086701000867010008A0
:1000A0006701000867010008670100086701000890
:1000B0006701000867010008670100086701000880
:1000C0006701000867010008670100086701000870
:1000D00067010008550C0008AD0C00086701000816
:1000E0006701000867010008670100086701000850
:1000F0006701000867010008670100086701000840
:10010000670100086701000867010008670100082F
:10011000670100086701000867010008670100081F
:10012000670100086701000867010008670100080F
:10013000DFF80CD000F046F800480047D112000864
:100140005811002080F30888704700000648804757
:1001500006480047FEE7FEE7FEE7FEE7FEE7FEE7AC
:10016000FEE7FEE7FEE7FEE7510C0008310100085C
:10017000202A04DB203A21FA02F00021704721FAFC
:1001800002F3D040C2F12002914008431946704763
:10019000D2B201E000F8012B491EFBD270470022C9
:1001A000F6E710B513460A4604461946FFF7F0FF76
:1001B000204610BD421C10F8011B0029FBD1801AFB
:1001C00070470000064C074D06E0E06840F0010370
:1001D00094E8070098471034AC42F6D3FFF7ACFF21
:1001E0000C1400082C140008FEE7000030B504468B
:1001F0000020651804E000BF14F8011B00F080FD2A
:10020000AC42F9D3002100F07BFDBDE83040002175
:1002100000F076BD7047000006490020C86106481E
:10022000016941F004010161016941F0400101618E
:10023000704700001800002000200240064A0021FC
:10024000D16106490A6942F002020A6148610869FF
:1002500040F0400008617047180000200020024074
:10026000044B0022DA61044A136943F0010313616D
:10027000018070471800002000200240144800222E
:10028000C168CB06134904D5CA6942F00202CA61AB
:100290001022C3685B0705D5CB6943F00103CB612E
:1002A00042F00402C369DB0707D0CB6943F00403C3
:1002B000CB61C16921F00101C161A2F580710139F1
:1002C00001D0C2607047C16921F00101C16170476E
:1002D000002002401800002070B5054600F0E0F84C
:1002E0000646114C09E0681C07D025B100F0D8F88B
:1002F000801BA84201D9032070BDE068C007F2D17D
:10030000E068800601D52020E060E068C00605D4E2
:10031000E069C00702D1E068400703D5FFF7AEFFF0
:10032000012070BD002070BD002002404FF0E02091
:10033000016921F002010161704700002DE9F047D9
:10034000054626480F460126017E01290FD00121CE
:10035000814601762868DFF888804CF25034022804
:1003600008D0A2462046FFF7B7FFA8B131E002202F
:10037000BDE8F0872046FFF7AFFF08BB0120FFF77D
:100380004BFF2046FFF7A8FFD8F81010064621F0D3
:100390000401C8F810101CE04FF0FF303860AC6862
:1003A00011E02046FFF74AFF5046FFF795FFD8F8C7
:1003B0001010060021F00201C8F8101001D03C60B6
:1003C00007E004F50064D5E9020100EBC120A0427A
:1003D000E7D8002189F818103046C9E71800002036
:1003E000002002400348016941F0800101610020C2
:1003F00070470000002002402DE9F05F07461C48CE
:1004000088460024017E15461E46012909D0012197
:10041000814601764CF2503A5046FFF75DFF18B125
:1004200022E00220BDE8F09F012F02D0022F00D071
:100430000427D346DFF83CA0220128463146FFF7C7
:1004400097FE81B208EB4400FFF70AFF5846FFF71A
:1004500043FFDAF8102022F00102CAF8102018B980
:10046000641CE4B2BC42E7D3002289F81820D9E723
:100470001800002000200240064900200A691206E8
:1004800007D5054A4A60054A4A600969090600D548
:10049000012070470020024023016745AB89EFCD62
:1004A0000148006870470000000000200248016811
:1004B000491C0160704700000000002007484FF40D
:1004C0007A71B0FBF1F14FF0E020491E416100214B
:1004D0008161052101610721016170470024F40059
:1004E000FEE70000F0B500220D4B154614460A2722
:1004F000B1FBF3F630368654B1FBF3F603FB16116D
:10050000B3FBF7F3521C861816F8016C302E00D19D
:1005100025B16D1C641C0A2CEAD3F0BD0022F9E75A
:1005200000CA9A3B02490A6902430A617047000007
:100530000010024002490A6982430A6170470000C4
:1005400000100240044908B58A6902438A6189693A
:100550000140009108BD000000100240F0B50A689B
:10056000C2F30F2595FAA5F2B2FA82F369E00122EF
:100570009A402A4264D0082B03D240F201129A40DA
:1005800006E0A3F108024FF00114944044F08062A9
:100590004C68082C0BD10C69C668170A97FAA7F7A4
:1005A000B7FA87F726EA1226BC402643C66092FABD
:1005B000A2F700EB1264B7FA87F74FEA870C0F2710
:1005C000266807FA0CF7BE4392FAA2F7D1F804E0C6
:1005D000B7FA87F7BF000EFA07FE46EA0E06266056
:1005E0004F68012F01D0092F2AD192FAA2F7B7FA4A
:1005F00087F74FEA870C032707FA0CF7BE4392FAF6
:10060000A2F7B7FA87F7D1F808E0BF000EFA07FEA5
:1006100092FAA2FC46EA0E06BCFA8CFC4FEA8C0E5B
:100620004FF0040C26600CFA0EFC92FAA2F2B2FA19
:1006300082F2CF68920026EA0C0697403E4326607D
:100640005B1C35FA03F292D10020F0BD4FF47A71B1
:10065000B0FBF1F14FF0E020491E416100218161C2
:1006600005210161704700B5034600F0F9F81860F4
:1006700000F0CCF8586000F0D7F89860586800F0A7
:10068000E1F8D86000BD0000014908607047000033
:100690000400002070B517490024884209D116488B
:1006A000C16841F48041C160C16821F48041C160EA
:1006B0001EE01249884202D14FF4003510E0104983
:1006C000884202D14FF480250AE00E49884202D1C7
:1006D0004FF4002504E00C49884208D14FF48015FE
:1006E0002846FFF71FFF2846FFF724FF00E00124FC
:1006F000204670BD00380140001002400044004018
:1007000000480040004C0040005000402DE9FF41EF
:100710000446C0680D460126C0F34030002861D170
:10072000E9686868E2680843296941F20C639A4302
:1007300011430843E060A868216921F44051014356
:1007400021616869616921F4407101436161684612
:10075000FFF789FF2548844201D103980CE0244823
:10076000844208D02348844205D02348844202D0E2
:100770002248844236D10298A0B32A6892B300EB93
:10078000C00101EB00119200B1FBF2F36420B3FB56
:10079000F0F36FF018077B43B1FBF2F5B1FBF2F712
:1007A00005EB8305322303EB0515B5FBF0F5B7FB2D
:1007B000F0F705F0F00505EB0715B1FBF2F7B1FB1B
:1007C000F2F1B1FBF0F100266FF01802514307EB94
:1007D000810103EB0111B1FBF0F000F00F002844A0
:1007E00080B2A06004B03046BDE8F081003801401E
:1007F0000044004000480040004C004000500040D1
:1008000000F0C8B8FEE7FEE77047000004494968F9
:10081000044A01F0F0010909515CC840704700002A
:1008200000100240A013000804494968044A01F47A
:10083000E06102EB11210978C840704700100240C6
:10084000B013000804494968044A01F4605102EBFE
:10085000D1210978C840704700100240B013000849
:100860000648406810F00C01054805D0042903D063
:10087000082901D100F006B87047000000100240BE
:1008800000127A000B48416811F480320A4909D0FD
:10089000B2F5803F06D14168084AC1F34041491C86
:1008A000B2FBF1F14068022200F4701002EB9040BC
:1008B000484370470010024000093D0000127A00D2
:1008C0002DE9F84300240F4606460C6090460121AE
:1008D000684600F011FD0546012820D19DF8000072
:1008E000182820D006DC01280BD002280BD00428C1
:1008F00026D12AE0412827D0612825D072281FD18F
:1009000025E0802401E04FF480643070211D4246D0
:10091000B01C00F0F1FC0546012826D00024284632
:100920003C60BDE8F88342460121684600F0E4FCE3
:10093000012805D19DF80000182801D1022404E007
:1009400000259DF8000000E000253070E7E74246F2
:100950000121684600F0D0FC0128F1D19DF800008B
:100960006528EDD100F0A2FCEAE7F178B07881F0DB
:10097000FF0188420AD130190179407900EB012842
:100980002146301DFFF732FC4045C8D000242546E3
:10099000C5E770471FB500200090019002900390BA
:1009A00003A800F0BFF938B1052822D0042822D0CE
:1009B000022824D013A01FE01A4800F091F81A482A
:1009C00000F08EF868460399FFF78CFD17A000F041
:1009D00087F8684600F084F817A000F081F819A0A5
:1009E00000F07EF800F0E0FA72B61C4800F048FC17
:1009F0001FBD1BA000E02AA000F072F81FBD2FA0B1
:100A0000FAE700000A0D4661696C656420746F2086
:100A100072656365697665207468652066696C65D2
:100A2000210A0D00B8130008020900200A0D205306
:100A3000697A653A200000002042797465730D0AD6
:100A4000000000002D2D2D2D2D2D2D2D2D2D2D2D8A
:100A50002D2D2D2D2D2D2D0A000000000028000821
:100A60000A0A0D54686520696D6167652073697AAB
:100A70006520697320686967686572207468616EB3
:100A80002074686520616C6C6F7765642073706199
:100A90006365206D656D6F7279210A0D000000009D
:100AA0000A0A0D566572696669636174696F6E2022
:100AB0006661696C6564210A0D0000000D0A0A4137
:100AC000626F7274656420627920757365722E0A94
:100AD0000D00000001B50121684600F03BFC08BD97
:100AE000002101E0491C89B2425C002AFAD100F0E1
:100AF00031BC0000F0B5054600242A782046234684
:100B0000302A2ED16A78782A01D0582A29D1022495
:100B10001CE000BFA2F14106052E07D9A2F1610732
:100B2000052F03D91136092E04D913E0A2F130079D
:100B3000092F01D8303A04E0052E01D8373A00E0F9
:100B4000573A641C02EB03130B2C04D22A5D002AD3
:100B5000E0D103E000202A5D002A01D101200B60D2
:100B6000F0BD2A5D62B16B2A01D04B2A02D10CB1D3
:100B70009B0205E06D2A01D04D2A04D11CB11B0552
:100B800001200B600AE0A2F13006092E0CD803EB1D
:100B900083036FF02F0606EB43031344641C0B2CF6
:100BA000DED20128DDD1F0BD0020F0BDFFF77EBC14
:100BB000244810B5016821F007010160016811F0B7
:100BC000070FFBD12048016821F0F80141F08001B6
:100BD0000160016841F0010101600168C1F3400159
:100BE0000029FAD0416821F47C1141F400214160D0
:100BF000016841F0807101600168C1F34061002922
:100C0000FAD0416821F0F0014160416821F4E061CF
:100C10004160416821F460514160416821F0030165
:100C200041F002014160416801F00C010829FAD14C
:100C3000064C2046FFF70AFD2046BDE81040FFF7AE
:100C400023BD000000200240001002400024F400F8
:100C50007047000038B5124C2068C0F3401090B1C6
:100C6000E068C0F3401070B160680F490D4B0A880E
:100C70009854521C90B240F698020880904201D3DA
:100C80000020088038BD252000F006F9206800907B
:100C90004007F7D5206800906068009038BD0000DC
:100CA00000380140380000200800002038B5114C01
:100CB0002068C0F3401080B1E068C0F3401060B11C
:100CC00060680E490C4B4A889854521C90B2488078
:100CD000322801D30020488038BD262000F0DCF8FF
:100CE000206800904007F7D5206800906068009069
:100CF00038BD000000440040D0080020080000205B
:100D000041F4807141F2210240004900CB0500D539
:100D1000401CC30300D55040CB03F5D580B27047CB
:100D2000FEE700002DE9F14F0027DFF850A188B061
:100D3000DFF844B13D46B8463C46CAF800B093E0FF
:100D40004FF000094E468BE040F6B83204A94C48FB
:100D5000FFF7B6FD01280AD0B8F1000F00D06D1CD6
:100D6000052D7AD91820FFF7B5FE182076E0049AF1
:100D7000002572B1022A07D0414909F0FF008B78A3
:100D800083420BD0152069E00620FFF7A3FE022462
:100D900066E00620FFF79EFE012661E0B9F1000F34
:100DA0000CD0DAF80000091D00F0C6F8DAF80000EF
:100DB00004990144CAF8001006203EE00879E8B31F
:100DC0000020304B091D02E01A54401C491C0A78CF
:100DD0000AB14028F8D34FF0000C03F800C0604679
:100DE0006B4601E01A54401C11F8012F202A01D053
:100DF0001028F7D303F800C006A91846FFF77AFEBB
:100E000008986FF4FB210068C8420BD918208DF8B0
:100E10001400012105A800F09DFA012105A800F0A9
:100E200099FA0524FB21584600F0C5F80898069960
:100E300001600620FFF74EFE432001E007E00CE0D2
:100E4000FFF748FE09F101094FF0010808E006200C
:100E5000FFF740FE0126374602E04320FFF73AFE47
:100E600056EA04003FF470AF57EA04003FF468AF5D
:100E700009B02046BDE8F08F0028000814000020CB
:100E80004209002002090020014A024900F024B86A
:100E9000691200080C00002000280DDB00F01F0282
:100EA000012191404009800000F1E020C0F880114C
:100EB000BFF34F8FBFF36F8F704702E008C8121F58
:100EC00008C1002AFAD170477047002001E001C133
:100ED000121F002AFBD170472DE9F04116460F463C
:100EE0000446002503E03946B047641C6D1C207899
:100EF0000028F8D12846BDE8F08100000448406889
:100F0000B0F1AA3F01D001207047002070470000D7
:100F1000480D002070B5074D0024601900F064F8FA
:100F2000FF2801D0012070BD641CE4B2202CF4D352
:100F3000002070BD003800082DE9F04114000F4674
:100F40004FF0000506461AD0A00715D022F0030482
:100F5000241D11E007EB850017F82510427841EABF
:100F600002218278C07841EA024141EA00613046BC
:100F700000F03CF86D1C361DB5EB940FEAD3BDE8CC
:100F8000F081000070B5064D064E0024601900F097
:100F90002BF83055641CA4B2102CF7D370BD0000A0
:100FA00000180008480D002010B500F069F8BDE8F1
:100FB0001040FFF7BBB970B586B000260C46054659
:100FC0000496FFF759FACDE9025404A96846009641
:100FD000FFF7B4F920B1FFF705FA002006B070BDA5
:100FE000FFF700FA0120F9E70078704770B50C466A
:100FF0000546FFF741FA2246002329460220FFF763
:10100000FBF918B1FFF7EEF9002070BDFFF7EAF920
:10101000012070BD164808B5816941F00101816168
:10102000816901F001010091C16941F08051C16104
:10103000C069104900F08050009008684FF6FF0228
:1010400010400D4A40F44070104308600B4841685E
:1010500021F0E0614160416841F000714160FFF7BB
:10106000A7FDFFF72BFABDE8084000F015B8000017
:10107000001002400CED00E00000FA050000014005
:1010800010B52520FFF708FFBDE810400148FFF725
:1010900001BB00000038014030B58DB01C2168460E
:1010A000FFF77DF8142107A8FFF779F84FF4804087
:1010B000FFF748FA0420FFF745FA1948079009207E
:1010C000089003200024CDE90904164D07A92846FD
:1010D000FFF744FA144807900420089007A928460F
:1010E000FFF73CFA4FF4E130CDE900040C20029404
:1010F000CDE90340059406940C4C69462046FFF761
:1011000005FB206920F490402061606920F02A00EE
:101110006061E06840F40050E0600DB030BD000058
:1011200002000204000801400400040400380140E9
:1011300010B50022094B09E01C68C4F3C014002C50
:10114000FAD010F8014B5C60521C92B28A42F3D381
:101150001868C0F380100028FAD010BD0038014094
:1011600010B5FFF7CBFE002812D0FFF7D3FE50B129
:1011700008A0FFF789FEFFF717FF72B61448BDE815
:10118000104000F07DB813A0BDE81040FFF77CBE12
:101190001FA0F9E76170702065786973742C206A6C
:1011A000756D7020746F206170702E2E2E20286156
:1011B0007070206E6576657220657261736564205B
:1011C000262076616C696420617070290D0A000028
:1011D00000280008617070206E6F74206578697354
:1011E000742C20776169742E2E2E20286170702057
:1011F0006E65766572206572617365642026206E67
:101200006F2076616C696420617070290D0A00009E
:10121000617070206E6F742065786973742C20770C
:101220006169742E2E2E20286170702065726173A2
:101230006564290D0A00000008B5002000904FF4F5
:1012400016720221684600F057F8012807D19DF870
:101250000000732803D19DF80100742801D00020FC
:1012600008BD012008BD000004490A685206FCD5EB
:10127000024AC1B2121D11607047000000380140DF
:1012800010B50168074A1140B1F1005F09D141680A
:10129000054C21600068FEF755FF2068BDE810404E
:1012A000004710BD0000FE2F1000002072B6BFF3F3
:1012B0004F8F05480168054A01F4E0611143016060
:1012C000BFF34F8F00BFFDE70CED00E00400FA050F
:1012D000FFF7A0FEFFF756FEFFF7AEFF08B9FFF7D6
:1012E0003FFFFFF78DFA00BF00F036F80128FBD171
:1012F000FFF7DCFFF8E700002DE9F84316460F463C
:101300008146FFF7CDF880460025114C1BE02EB139
:10131000FFF7C6F8A0EB0800B04202D90020BDE8F4
:10132000F88320680090000703D52068009060686B
:1013300000902068C0F340100028E8D0606809F8E9
:1013400005006D1CADB2BD42F3D30120E7E70000FC
:1013500000380140FFF7ECBEF8B500252C468DF8AB
:1013600000500DA60EE0322201216846FFF7C4FFAF
:1013700001280ED1305D9DF80010884209D1012569
:10138000641CE4B23046FEF715FFA042EBD82846B5
:10139000F8BD0025FBE700007265626F6F74000006
:1013A0000000000000000000010203040607080915
:1013B00000000000010203040A0A0D2050726F674A
:1013C00072616D6D696E6720436F6D706C657465D9
:1013D00064205375636365737366756C6C79210A59
:1013E0000D2D2D2D2D2D2D2D2D2D2D2D2D2D2D2D4D
:1013F0002D2D2D2D2D2D2D2D2D2D2D2D2D2D2D2D1D
:101400002D0D0A204E616D653A2000002C14000855
:101410000000002018000000BA0E00084414000864
:101420001800002040110000CA0E00080000000053
:101430000024F40000000000000000000000000094
:0414400000000000A8
:102800009005002049290008DF3C0008D73C00085B
:10281000DB3C00080D2A00081941000800000000F8
:102820000000000000000000000000000D3D000856
:10283000112A000800000000E33C00080F3D0008DA
:102840006329000863290008632900086329000838
:102850006329000863290008632900086329000828
:102860006329000863290008632900086329000818
:102870006329000863290008632900086329000808
:1028800063290008632900086329000863290008F8
:1028900063290008632900086329000863290008E8
:1028A00063290008632900086329000863290008D8
:1028B00063290008632900086329000863290008C8
:1028C00063290008632900086329000863290008B8
:1028D0006329000899400008ED40000863290008BA
:1028E0006329000863290008632900086329000898
:1028F0006329000863290008632900086329000888
:102900006329000863290008632900086329000877
:102910006329000863290008632900086329000867
:102920006329000863290008632900086329000857
:10293000DFF810D000F058F800480047A94400081C
:10294000AFF3008090050020064880470648004706
:10295000FEE7FEE7FEE7FEE7FEE7FEE7FEE7FEE74F
:10296000FEE7FEE7713D00083129000840EA010357
:102970009B0703D009E008C9121F08C0042AFAD235
:1029800003E011F8013B00F8013B521EF9D27047F9
:10299000D2B201E000F8012B491EFBD270470022A1
:1029A000F6E710B513460A4604461946FFF7F0FF4E
:1029B000204610BD30B505462A460B4612F8010BDD
:1029C00013F8014B08B1A042F8D01CB1002802D086
:1029D0006D1CF1E7284630BD421C10F8011B002990
:1029E000FBD1801A70470000064C074D06E0E068F6
:1029F00040F0010394E8070098471034AC42F6D346
:102A0000FFF79AFFDC450008FC45000800BFFEE721
:102A100070470146002291F82100022808D00420C6
:102A2000886300BF002081F8200000BF01207047AC
:102A30000868006820F00E000B68186008680068DD
:102A400020F001000B68186091F840300120984098
:102A5000CB6B5860012081F8210000BF002081F875
:102A6000200000BF1046E2E770B50446002594F848
:102A70002100022803D00420A0630125C1E02068C2
:102A8000006820F00E00216808602068006820F0CF
:102A90000100216808605C492068884252D95A497F
:102AA00078392068884201D1012047E056496439CD
:102AB0002068884201D1102040E0534950392068F5
:102AC000884201D1801539E04F493C39206888425D
:102AD00001D1801432E04C4928392068884202D163
:102AE0004FF480302AE0484914392068884202D1E6
:102AF0004FF4801022E044492068884201D140040C
:102B00001CE042492068884201D1012016E03F497B
:102B100014312068884201D110200FE03B49283150
:102B20002068884201D1801508E038493C3120688E
:102B3000884201D1801401E04FF480303349091FED
:102B4000086051E0304978392068884201D101207D
:102B500047E02D4964392068884201D1102040E0C7
:102B6000294950392068884201D1801539E0264929
:102B70003C392068884201D1801432E0224928394A
:102B80002068884202D14FF480302AE01E4914396F
:102B90002068884202D14FF4801022E01A49206850
:102BA000884201D140041CE018492068884201D1C4
:102BB000012016E0154914312068884201D1102007
:102BC0000FE0124928312068884201D1801508E0C1
:102BD0000E493C312068884201D1801401E04FF455
:102BE0008030094980394860012084F8210000BF05
:102BF000002084F8200000BF606B10B12046616B9C
:102C00008847284670BD000080000240080402404A
:102C100070B5044600F0B0F906462546681C10B1B0
:102C200004480078054400BF00F0A6F9801BA842C4
:102C3000FAD370BD080000202DE9F84702460023B2
:102C40009C467BE14FF0010808FA03F4D1F80080BC
:102C500008EA0400A0427DD1DFF8F4A2D1F8048094
:102C6000A8EB0A09D0453AD014DCB8F1030F50D0D4
:102C700009DCB8F1000F31D0B8F1010F1CD0B8F168
:102C8000020F49D120E0B8F1110F18D0B8F1120F9E
:102C900042D11EE0B9F5881F25D006DCB9F5803F8A
:102CA00020D0B9F5801F37D11AE0B9F5001F18D030
:102CB000B9F5041F30D117E0D1F80CC02DE0D1F8E0
:102CC0000C8008F1040C28E0D1F80C8008F1080C05
:102CD00023E0D1F80C8008F10C0C1EE000BF00BF0F
:102CE00000BF00BF00BF00BFD1F80880B8F1000FDF
:102CF00002D14FF0040C0BE0D1F80880B8F1010FBD
:102D000003D14FF0080C146102E04FF0080C54613D
:102D100003E04FF0000C00E000BF00BFFF2801D827
:102D2000904601E002F104084646FF2802D84FEA27
:102D3000830803E0A3F108084FEA88084746D6F85D
:102D400000804FF00F0909FA07F928EA09080CFA80
:102D500007F900E07AE048EA0908C6F80080D1F8EF
:102D6000048008F08058B8F1805F6FD100BFDFF8B1
:102D7000E481D8F8188048F00108DFF8D891C9F844
:102D80001880C846D8F8188008F00108CDF80080EF
:102D900000BF00BF4FEAB9384FEA930958F82950ED
:102DA0004FEA83784FEA18794FF00F0808FA09F8CC
:102DB00025EA0805DFF8A081424502D14FF000085E
:102DC00024E0DFF89881424502D14FF001081DE070
:102DD000DFF88C81424502D14FF0020816E0DFF89F
:102DE0008481424502D14FF003080FE0DFF878817B
:102DF000424502D14FF0040808E0DFF870814245F7
:102E000002D14FF0050801E04FF006084FEA837940
:102E10004FEA197908FA09F848EA0505DFF8508100
:102E20004FEA930948F82950D1F8048008F4803813
:102E3000B8F5803F0BD1DFF83C81D8F8008048EA34
:102E40000008DFF83091C9F800800AE075E0DFF88B
:102E50002481D8F8008028EA0008DFF81891C9F822
:102E60000080D1F8048008F40038B8F5003F0ED196
:102E7000DFF8008108F10408D8F8008048EA00086B
:102E8000DFF8F09009F10409C9F800800DE0DFF8DF
:102E9000E48008F10408D8F8008028EA0008DFF888
:102EA000D49009F10409C9F80080D1F8048008F42D
:102EB0008018B8F5801F0ED1DFF8B88008F1080837
:102EC000D8F8008048EA0008DFF8A89009F108095E
:102ED000C9F800800DE0DFF89C8008F10808D8F8F8
:102EE000008028EA0008DFF88C9009F10809C9F889
:102EF0000080D1F8048008F40018B8F5001F0ED146
:102F0000DFF8708008F10C08D8F8008048EA000863
:102F1000DFF8609009F10C09C9F800800DE0DFF8D6
:102F2000548008F10C08D8F8008028EA0008DFF87F
:102F3000449009F10C09C9F800805B1CD1F80080AD
:102F400028FA03F8B8F1000F7FF47CAEBDE8F887EB
:102F5000000011100010024000080140000C014068
:102F6000001001400014014000180140001C014005
:102F7000080001400004014001480068704700005B
:102F8000000000200348006803490978084401490B
:102F900008607047000000200800002010B50848B5
:102FA000006840F0100006490860032000F0A8F80F
:102FB000002000F007F800F02BF8002010BD000002
:102FC0000020024070B504460E4800784FF47A7134
:102FD000B1FBF0F00C490968B1FBF0F5284600F0B0
:102FE0000BFC08B1012070BD102C07D20022214635
:102FF000501E00F047F80548046001E00120F2E7A8
:103000000020F0E7080000200C0000200400002051
:1030100008B500BF1148806940F001000F49886180
:103020000846806900F00100009000BF00BF00BFAB
:103030000846C06940F08050C8610846C06900F089
:103040008050009000BF00BF00BF0549486820F0D5
:10305000E06040F00070486000BF08BD0010024012
:103060000000014001460846002809DB00F01F036C
:1030700001229A4043099B0003F1E023C3F8002199
:1030800000BF70472DE9F05F80460D4616460027C9
:1030900001F068F8074639462A46334601F0070032
:1030A000C0F1070ABAF1040F02D94FF0040A01E097
:1030B000C0F1070AD14600F1040ABAF1070F02D2A3
:1030C0004FF0000A01E0A0F1030AD4464FF0010AD4
:1030D0000AFA09FAAAF1010A0AEA020A0AFA0CFA39
:1030E0004FF0010B0BFA0CFBABF1010B0BEA030BDE
:1030F0004AEA0B042146404601F03CF8BDE8F09F47
:1031000000BF00F00702064B19684FF6FF03194095
:10311000044B0B4343EA0221014B196000BF704787
:103120000CED00E00000FA0570B504460D460CB940
:10313000012070BD5A48006800F00700A8420ED276
:103140005748006820F007002843554908600846A2
:10315000006800F00700A84201D00120E9E72078CC
:1031600000F0020002281DD1207800F0040004289D
:1031700005D14C48406840F4E0604A4948602078F6
:1031800000F00800082805D14648406840F4605027
:10319000444948604348406820F0F000A168084373
:1031A00040494860207800F0010078B36068012849
:1031B00006D13C48006800F4003090B90120B8E71F
:1031C0006068022806D13748006800F0007040B9F6
:1031D0000120AEE73348006800F0020008B9012082
:1031E000A7E73048406820F00300616808432D4994
:1031F0004860FFF7C1FE064609E0FFF7BDFE801BF1
:1032000041F28831884202D9032092E707E025483D
:10321000406800F00C006168B0EB810FEDD12048F0
:10322000006800F00700A8420ED91D48006820F091
:10323000070028431A4908600846006800F00700A4
:10324000A84201D0012074E7207800F0040004288F
:1032500007D11448406820F4E060E1680843114950
:103260004860207800F00800082808D10D48406820
:1032700020F46050216940EAC1000A49486000F02A
:103280003FF808494968C1F30311074A515CC84037
:103290000649086006480068FFF794FE002048E7EA
:1032A0000020024000100240A04500080C00002051
:1032B0000400002001480068704700000C00002056
:1032C00000B5FFF7F7FF04494968C1F30221034A3B
:1032D000515CC84000BD000000100240B04500082D
:1032E00000B5FFF7E7FF04494968C1F3C221034A6B
:1032F000515CC84000BD000000100240B04500080D
:10330000F0B585B00FF26C0C9CE8E01001A8A0E8C5
:10331000E0101CA52D680095002100220023002448
:103320000020194D696801F00C05F5B1042D02D09B
:10333000082D19D101E0154819E001ADC1F383460C
:10334000AC5D01F4803555B10F4D6D68C5F3404556
:103350001DF805200D4D6543B5FBF2F302E00C4D61
:1033600004FB05F3184602E000BF084800BF00BF99
:1033700005B0F0BD02030405060708090A0B0C0D91
:103380000E0F1010010200000010024000127A001F
:1033900000093D00F8B504460CB90120F8BD2078BD
:1033A00000F00100002878D0F848406800F00C00D8
:1033B00004280CD0F548406800F00C00082811D112
:1033C000F248406800F48030B0F5803F0AD1EF4801
:1033D000006800F4003000285FD0606800285CD1ED
:1033E0000120DBE700BF6068B0F5803F06D1E74809
:1033F000006840F48030E549086028E0606858B90A
:10340000E248006820F48030E0490860084600681F
:1034100020F4802008601AE06068B0F5A02F0BD17E
:10342000DA48006840F48020D849086008460068FF
:1034300040F4803008600AE0D448006820F480300E
:10344000D24908600846006820F48020086000BF68
:10345000606888B1FFF790FD054606E0FFF78CFD38
:10346000401B642801D9032098E7C848006800F48D
:1034700000300028F2D010E0FFF77EFD054606E0A0
:10348000FFF77AFD401B642801D9032086E7BF4877
:10349000006800F400300028F2D1207800F002002B
:1034A000022857D1B948406800F00C0050B1B74825
:1034B000406800F00C00082818D1B448406800F4B7
:1034C000803098B9B148006800F0020020B120694E
:1034D000012801D0012061E7AC48006820F0F80025
:1034E000616940EAC100A949086033E02069E8B198
:1034F0000120A7490860FFF73FFD054606E0FFF7FA
:103500003BFD401B022801D9032047E79F48006884
:1035100000F002000028F2D09C48006820F0F8007B
:10352000616940EAC1009949086013E000209849A8
:103530000860FFF721FD054606E0FFF71DFD401B73
:10354000022801D9032029E79048006800F0020012
:103550000028F2D1207800F0080008282DD1A069B9
:10356000B8B101208B490860FFF706FD054606E06B
:10357000FFF702FD401B022801D903200EE7834814
:10358000406A00F002000028F2D0012000F0AAFBFF
:1035900013E000207F490860FFF7EEFC054606E0D7
:1035A000FFF7EAFC401B022801D90320F6E6774822
:1035B000406A00F002000028F2D1207800F00400F8
:1035C000042873D100277148C06900F0805070B999
:1035D00000BF6E48C06940F080506C49C861084621
:1035E000C06900F08050009000BF00BF01276A480A
:1035F000006800F48070B0B96748006840F48070DB
:1036000065490860FFF7B8FC054606E0FFF7B4FC23
:10361000401B642801D90320C0E65F48006800F41D
:1036200080700028F2D000BFE068012806D157481A
:10363000006A40F001005549086227E0E06858B987
:103640005248006A20F00100504908620846006AAA
:1036500020F00400086219E0E06805280BD14B480F
:10366000006A40F00400494908620846006A40F0D8
:10367000010008620AE04548006A20F00100434961
:1036800008620846006A20F00400086200BFE06893
:10369000A0B1FFF771FC054609E0FFF76DFC401B88
:1036A00041F28831884202D9032077E622E0374888
:1036B000006A00F002000028EFD012E0FFF75CFC87
:1036C000054608E0FFF758FC401B41F2883188426C
:1036D00001D9032062E62D48006A00F002000028AC
:1036E000F0D1012F05D12948C06920F08050274929
:1036F000C86100BFE069C8B32448406800F00C000E
:10370000082860D0E069022848D1002020490866D6
:10371000FFF732FC054606E0FFF72EFC401B0228AF
:1037200001D903203AE61948006800F0007000282B
:10373000F2D1206AB0F5803F07D11448406820F4E8
:103740000030A168084311494860D4E908010843E2
:103750000E49496821F4741108430C49486001205E
:103760000B490866FFF708FC054607E03DE0FFF758
:1037700003FC401B022801D903200FE60348006820
:1037800000F000700028F2D02FE00000001002408E
:103790000000424280044242007000400020144970
:1037A0000866FFF7E9FB054606E0FFF7E5FB401B6F
:1037B000022801D90320F1E50E48006800F00070EE
:1037C0000028F2D111E0E069012800D1E6E50948BE
:1037D000466806F48031206A814204D106F47011F3
:1037E000606A814201D00120D8E50020D6E50000C2
:1037F000000042420010024070B504462546681E93
:10380000B0F1807F01D301200FE0681E4FF0E0216E
:1038100048610F214FF0FF3000F0ACFC00204FF06A
:10382000E021886107200861002070BD7047704763
:103830002DE9F84F0446206805682068C6682068AE
:1038400047694FF00009CA4605F00F09B9F1000FAA
:103850000AD105F0200038B106F0200020B1204642
:1038600000F0C3FABDE8F88FB9F1000F71D007F08E
:10387000010018B906F4907000286AD005F0010024
:1038800030B106F4807018B1206C40F00100206463
:1038900005F0040030B107F0010018B1206C40F0D1
:1038A0000200206405F0020030B107F0010018B1F9
:1038B000206C40F00400206405F0080048B106F0D8
:1038C000200010B907F0010018B1206C40F008008A
:1038D0002064206C68B305F0200028B106F02000B9
:1038E00010B1204600F081FA20684069C0F3801AC8
:1038F000206C00F0080010B9BAF1000F22D0204669
:1039000000F048FA2068406900F04000B0B120683B
:10391000406920F0400021684861A06B50B15648D2
:10392000A16B4863A06BFFF79FF810B1A06B416BD0
:1039300088470CE02046FFF77AFF08E02046FFF7B3
:1039400076FF04E02046FFF772FF0020206489E73D
:10395000FFE7206B012878D105F01000002874D013
:1039600006F01000002870D000BF002000902068F2
:103970000068009020684068009000BF00BF206889
:10398000406900F04000C0B3A06B006840681FFAB7
:1039900080F8B8F1000F2FD0A08D40452CDDA4F8A1
:1039A0002E80A06B806920281FD02068C06820F47A
:1039B00080702168C8602068406920F0010021689B
:1039C00048612068406920F040002168486120205B
:1039D00084F83E00002020632068C06820F01000BA
:1039E0002168C860A06BFFF714F8A08DE28D801AE3
:1039F00081B22046FFF71AFF34E7FFE7A08DE18D83
:103A0000401A1FFA80F8E08DE8B1B8F1000F1AD023
:103A10002068C06820F490702168C8602068406900
:103A200020F0010021684861202084F83E00002039
:103A300020632068C06820F010002168C8604146FB
:103A40002046FFF7F3FE0DE7FFE705F0800030B1F9
:103A500006F0800018B1204600F0B8FA02E705F041
:103A6000400030B106F0400018B1204600F0ADF93A
:103A7000F8E600BFF6E60000813D000810B50446F8
:103A80000CB9012010BDA06900B100E000BF94F89E
:103A90003D0028B9002084F83C00204600F028F8BA
:103AA000242084F83D002068C06820F4005021687C
:103AB000C860204600F00CFA2068006920F49040AD
:103AC000216808612068406920F02A002168486167
:103AD0002068C06840F400502168C860002020645D
:103AE000202084F83D0084F83E000020CAE7000052
:103AF00010B586B004460020029003900490059013
:103B00003B492068884237D100BF3A48806940F479
:103B10008040384988610846806900F480400190FF
:103B200000BF00BF00BF0846806940F00400886104
:103B30000846806900F00400019000BF00BF4815EE
:103B40000290022003900320059002A92A48FFF763
:103B500073F84FF48060029000200390049002A953
:103B60002548FFF769F8002211462520FFF78AFA59
:103B70002520FFF777FA39E020492068884235D1BF
:103B800000BF1C48C06940F400301A49C8610846AB
:103B9000C06900F40030019000BF00BF00BF0846BC
:103BA000806940F0040088610846806900F00400E4
:103BB000019000BF00BF0420029002200390032068
:103BC000059002A90C48FFF737F808200290002062
:103BD0000390049002A90848FFF72EF8002211462E
:103BE0002620FFF74FFA2620FFF73CFA06B010BD5B
:103BF000003801400010024000080140004400402D
:103C000070472DE9F84F04460E46174699464FF087
:103C1000000A94F83D0020285AD106B117B90120B6
:103C2000BDE8F88F00BF94F83C00012801D10220C4
:103C3000F6E7012084F83C0000BF0020206421202A
:103C400084F83D00FFF798F98246A784E784A068CE
:103C5000B0F5805F04D1206910B90025B04602E0BC
:103C600035464FF0000800BF002084F83C0000BF3C
:103C70001BE05346002280212046CDF8009000F042
:103C8000D5F908B10320CBE745B9B8F80000C0F377
:103C900008002168486008F1020803E028782168DC
:103CA00048606D1CE08C401EE084E08C0028E0D170
:103CB0005346002240212046CDF8009000F0B6F98E
:103CC00008B10320ACE7202084F83D000020A7E7DE
:103CD0000220A5E7704700BFFEE700BFFEE700BF78
:103CE000FEE7704708B508490968C9084FF47A72B9
:103CF000B1FBF2F14143009100BF00BF00994A1EA1
:103D000000920029F9D108BD0C000020704710B5C1
:103D1000FFF738F910BD00B58FB0282105A8FEF7D0
:103D20003EFE14216846FEF73AFE0120059000048D
:103D30000690002007900120099002200C90C103FA
:103D40000D914FF4E0110E9105A8FFF723FB0F2012
:103D5000009002200190002002904FF480600390B8
:103D60000020049002216846FFF7DEF90FB000BD85
:103D700001480249086070470028000808ED00E08B
:103D800070B505466C6A0020E085E0842046FFF7A8
:103D90004EFD70BD0168C96821F490710268D16060
:103DA0000168496921F0010102685161016B012933
:103DB00005D10168C96821F010010268D160202195
:103DC00080F83E1000210163704710B5044620685A
:103DD000C06820F040002168C860202084F83D00C1
:103DE0002046FFF777FF002010BDF8B5044694F891
:103DF0003E00222869D1A068B0F5805F0CD120690F
:103E000050B90025A66A20684068C0F308003080D9
:103E1000A06A801CA06215E0A56A0026A068B0F523
:103E2000805F03D0A06828B9206918B9206840686D
:103E3000287004E02068406800F07F002870A06AC5
:103E4000401CA062E08D401E80B2E085A8BB2068C7
:103E5000C06820F020002168C8602068C06820F495
:103E600080702168C8602068406920F001002168E6
:103E70004861202084F83E00206B01281ED10020DC
:103E800020632068C06820F010002168C8602068A6
:103E9000006800F0100010280AD100BF0020009038
:103EA00020680068009020684068009000BF00BF54
:103EB000A18D2046FFF7BAFC03E004E02046FFF79F
:103EC0009FFE0020F8BD0020FCE70220FAE700007A
:103ED00070B504462168096921F44051E268114334
:103EE000226811612269A1681143626941EA0205F1
:103EF0002168C96841F20C62914329432268D1606C
:103F00002168496921F44071A26911432268516115
:103F10002D4A2168914202D1FFF7E2F901E0FFF753
:103F2000CFF900EBC00101EB001162689200B1FB18
:103F3000F2F100EBC00202EB001263689B00B2FBDF
:103F4000F3F26423B2FBF3F202EBC20303EB0212BF
:103F5000A1EB8201322202EB01116422B1FBF2F1EA
:103F600001F0F00100EBC00202EB001263689B005D
:103F7000B2FBF3F26423B2FBF3F201EB021200EBAB
:103F8000C00101EB001163689B00B1FBF3F100EB92
:103F9000C00303EB00136668B600B3FBF6F36426B8
:103FA000B3FBF6F303EBC30606EB0313A1EB8301AC
:103FB000322303EB01116423B1FBF3F101F00F0194
:103FC00011442268916070BD00380140014691F8AB
:103FD0003D00212828D18868B0F5805F0BD10869A1
:103FE00048B90A6A1088C0F308000B685860086A6C
:103FF000801C086205E00B6A581C086218780B6880
:104000005860C88C401E80B2C88458B90868C0681F
:1040100020F080000B68D8600868C06840F040005D
:104020000B68D860002070470220FCE72DE9F041C2
:1040300004460D4617469846069E21E0701CF8B1CE
:104040002EB1FEF799FFA0EB0800B04218D9206806
:10405000C06820F4D0702168C8602068406920F0F2
:10406000010021684861202084F83D0084F83E006A
:1040700000BF002084F83C0000BF0320BDE8F081B1
:10408000206800682840A84201D1012000E00020FB
:10409000B842D3D00020F1E708B5002000900F48C7
:1040A00000680068C0F34010A0B10D480068C0B2BD
:1040B00000909DF800100B4802880088401C094BB6
:1040C00018800948815418460088322802DB0020F5
:1040D000194608800148FFF7ABFB08BD34000020FB
:1040E00004380140140000207800002008B50020AA
:1040F0000090074800680068C0F3401018B10548F8
:104100000068C0B200900248FFF792FB08BD0000B3
:10411000AC0000200444004000BFFEE70FB4054B94
:1041200010B503A9044A029800F047F810BC5DF8E6
:1041300014FB000031430008100000200FB4084BAE
:1041400010B504A902AA039800F037F8044602A9A2
:10415000002000F09DF8204610BC5DF814FB000024
:104160009142000802480068C0F302207047000036
:104170000CED00E010B5002804DB0A07130E054A19
:10418000135406E00A07140E034A00F00F031B1F26
:10419000D45410BD00E400E018ED00E002E008C8CF
:1041A000121F08C1002AFAD170477047002001E0B1
:1041B00001C1121F002AFBD170472DE9F84F994623
:1041C000924688460546002706E025280AD0514633
:1041D0004A4690476D1C7F1C28780028F5D1384648
:1041E000BDE8F88F002315F8011F18462E2915D1B8
:1041F00015F8011F04232A290DD06FF02F0229780A
:10420000A1F13004092C09D800EB800002EB40003A
:1042100008446D1CF3E758F8040B6D1C2A78002A3B
:10422000DDD0632A07D0732A0FD0104651464A4684
:1042300090477F1C2AE018F8042B8DF800200021FD
:104240008DF801106E46012103E058F8046B4FF021
:10425000FF315A074FF0000401D409E0641C844286
:104260000BDA8C42FADB325D002AF7D105E0641CE0
:104270008C42FCDB305D0028F9D1274404E016F8BD
:10428000010B51464A469047641EF8D26D1CA3E7C5
:104290000A68531C0B601070704710B5FEF77EFE65
:1042A000FFF739FD00F002F862B610BD10B50D48F9
:1042B0000D4908604FF4E130486000210A488160F0
:1042C000C16001610C21416100218161C161FFF781
:1042D000D5FB05480068C06840F020000249096825
:1042E000C86010BD003801403400002070B504469D
:1042F0000D464FF6FF732A4621460248FFF781FC20
:1043000070BD00003400002010B56C210548FEF798
:1043100046FB32210448FEF742FB00200349088097
:1043200010BD0000240100207800002014000020AF
:1043300013B50C464FF6FF73012269460248FFF79A
:1043400060FC00981CBD00003400002070B58EB0E9
:1043500005460E46342101A8FEF721FB07A30AA259
:104360000BA101A8FFF7EAFE01A8FEF735FB84B216
:10437000214601A800F0E8F80EB070BD53544D334B
:10438000324631303378450056302E30310000004F
:104390006765745F6465766963655F766572736986
:1043A0006F6E3D257320282573290D0A000000003B
:1043B00010B500F013F80649086000F00BF8044649
:1043C0000348214602680830FEF7D0FA10BD00000D
:1043D0002401002000487047780000200148008830
:1043E0007047000014000020F0B58DB006460F465F
:1043F00034216846FEF7D3FA13A16846FFF79EFE04
:104400006846FEF7E9FA84B22146684600F09CF857
:10441000002414E034216846FEF7C1FA0D4850F834
:1044200034200DA16846FFF789FE6846FEF7D4FAEE
:1044300085B22946684600F087F8601CC4B2032C98
:10444000E8D30DB0F0BD0000636D64206C69737437
:104450003A0D0A001800002025730D0A0000000024
:1044600072B600BF00BF00BF00BF00BFBFF34F8FD9
:1044700000BF00BF00BF0A48006800F4E0600949BF
:104480000843001D0649086000BF00BF00BFBFF31E
:104490004F8F00BF00BF00BF00BF00BFFDE700009F
:1044A0000CED00E00000FA050024FFF7F6FE0CA07A
:1044B000FFF734FE12E00A20FEF7AAFB601C84B26C
:1044C000052094FBF0F100FB114008B900F058F80A
:1044D000642C03DB002406A0FFF720FEEBE70000BE
:1044E0000D0A20656E74657220617070200D0A00DF
:1044F00072756E2E2E2E0D0A0000000070B5044657
:104500000D46FFF7ADFF70BD70B5002414E00C48F8
:1045100050F834100B48FEF74DFA054655B10948DE
:104520000838008881B2064800EBC400426805489C
:10453000904770BD601CC4B2032CE8D300BFF8E7FD
:10454000180000202C01002070B505460C462246BC
:1045500029460648FEF70AFA04483A38446080883B
:1045600081B20248FFF7C2FE70BD00005E0100206C
:1045700010B5FFF71DFFFFF7C7FFFFF7C5FE10BD22
:1045800010B5FFF72BFF04463CB104480088844275
:1045900001D1FFF7EDFF0148048010BD300000207D
:1045A00000000000000000000102030406070809E3
:1045B00000000000010203046765745F64657669AA
:1045C00063655F76657273696F6E000068656C7015
:1045D000000000007265626F6F740000FC45000807
:1045E00000000020340000009C4100083046000814
:1045F000340000205C050000AC4100080000000011
:1046000010000000010000000024F4000000000081
:1046100000000000CC450008E9430008D44500082C
:10462000FD440008B84500084D43000800000000A4
:00000001FF
