:020000040000FA
:1000000078060020E1000000FB0000003906000037
:1000100000000000000000000000000000000000E0
:10002000000000000000000000000000FF000000D1
:100030000000000000000000010100009F0A000015
:10004000450600004F060000590600006306000048
:100050006D06000077060000810600008B06000098
:100060000501000005010000950600009F06000044
:10007000A9060000B3060000BD060000C706000088
:10008000D106000005010000DB060000E5060000C7
:10009000EF060000F906000003070000050100005C
:1000A0000D070000050100001707000021070000F0
:1000B0002B07000005010000350700003F07000086
:1000C0000448854600F064F800480047B501000088
:1000D000C046C0467806002080F3088870470000BC
:1000E00009480A4A002100A1814200D90244084877
:1000F00002600848804708480047FEE7FEE7FEE741
:10010000FEE7FEE7FEE70000000000200000000020
:1001100008ED00E02D0C0000C100000030B50B46DA
:10012000014600202022012409E00D46D5409D42D1
:1001300005D31D469540491B254695404019154657
:10014000521E002DF1DC30BD03460B439B0703D04C
:1001500009E008C9121F08C0042AFAD203E00B788C
:100160000370401C491C521EF9D27047D2B201E004
:100170000270401C491EFBD270470022F6E710B502
:1001800013460A4604461946FFF7F0FF204610BD05
:10019000064C0125064E05E0E36807CC2B430C3CDA
:1001A00098471034B442F7D3FFF78EFF9411000044
:1001B000B411000010B500F039FD00F069FF002017
:1001C00010BD30B504460020651803E02178641C9A
:1001D00000F07CFDAC42F9D3002100F077FD002156
:1001E00000F074FD30BD000002480068002800D017
:1001F000004770470800002010B5012000F05AF8B1
:10020000012804D100F010F8012000F02BF80020A4
:1002100000F050F8012805D1002000F005F800207A
:1002200000F020F810BD000010B5044601200A4B74
:100230000A490B4A002C06D0012C0BD1CB62CA62B2
:10024000886AA04304E0CB62CA62886A02229043B3
:100250008862002010BD00005A5A000000000240D1
:10026000A5A5000030B5054601200F4C0F49104BE5
:100270006022002D0DD0012D0AD1CC62CB62086A1C
:100280004006C00F8301086A9043184308620020AB
:1002900030BDCC62CB62086A0B6A8006C00F400199
:1002A000934303430B62F2E75A5A000000000240F6
:1002B000A5A50000024600200549002A04D0012A15
:1002C00005D1486AC00701E0486A8007C00F70473F
:1002D00000000240F7B58AB00C4606460025FF270D
:1002E0002021684609970895FFF747FF2848012C09
:1002F00002460CD0022C0AD0042C08D0062C06D0C2
:10030000082C04D00C2C02D004200DB0F0BD214BE1
:100310001E60016A01235B0299430C9BDB079B0D66
:100320001943016269461C4EAB00F6586D1C6643CA
:10033000CE50082DF7D30C26184B194D082C0BD096
:100340000C2C0FD0C362C562046AB443046200245B
:10035000FF23A600099310E0C362C562046AB44398
:10036000241DF3E70197F7E7099D6D1E09950DD34D
:100370000A4BC3620A4BC362975193598F59BB42D0
:10038000F2D1641C082CE3D30898BEE70720BCE731
:100390000000024008000020201100005A5A00000E
:1003A000A5A50000F8B5FF22254900270092884244
:1003B00001D90420F8BD234903E0009B5C1E009492
:1003C0003CD30B6ADB06F8D41F4B204C00920AE0AA
:1003D000009E761E009631D3CB62CC620D6AAD08CA
:1003E000AD00AD1C0D620D6AAD07AD0F022DEFD152
:1003F000009208E0009E761E00961FD3CB62CC626E
:100400000025ED430D630D6B6D1CF3D1057000925B
:1004100003E00098461E009610D3086AC006F8D480
:10042000009206E00098421E009207D3CB62CC6295
:100430000D63086B0028F5D13846F8BD0920F8BDDA
:10044000FFFF0000000002405A5A0000A5A500006E
:10045000F8B58C46FF23274900270093884201D92D
:100460000420F8BD244A03E000994C1E00943ED3BA
:10047000116AC906F8D4214C214D00930AE0009E70
:10048000711E009133D3D462D562166AB608B600E5
:10049000761C1662166AB607B60F012EEFD10093CE
:1004A00008E0009E711E009121D3D462D56200261F
:1004B000F6431663166B761CF3D161460160009318
:1004C00003E00098411E009111D3106AC006F8D4D1
:1004D0000021009306E00098431E009307D3D462E6
:1004E000D5621163106B0028F5D13846F8BD09209C
:1004F000F8BD0000FFFF0000000002405A5A000053
:10050000A5A5000030B5224BC318DD6801248C403E
:10051000A543DD60890008181E49002540180560C4
:1005200010780128186824D0A0431860507800285B
:10053000D86920D02043D861907801281DD00228A6
:10054000186A1DD0A0431862586AA0435862D07838
:100550000028D86A19D02043D8620F49886801233F
:100560001279DB03D2079843120C104388600020F5
:1005700030BD2043D9E7A043DDE7186A2043E2E716
:10058000A0431862586A2043E0E7A043E4E7000074
:10059000000D0240000C0240000F024089000818C4
:1005A000024940180260002070470000000C024021
:1005B00002480169022291430161704700E000E0B6
:1005C00001B5044908680A68009B121A9A42FAD3D6
:1005D00008BD0000040000200148006870470000CA
:1005E0000400002002480168491C016070470000B7
:1005F0000400002010B50C487D21C9000068FFF7F9
:100600008DFD0A49401E88420CD8094948610948B5
:100610000722C3691B021B0A4C042343C361002049
:1006200088610A6110BD000000000020FFFFFF008C
:1006300000E000E004ED00E008B500200090002894
:10064000FDD008BD10B50020C046C04610BD10B595
:100650000120C046C04610BD10B50220C046C046AD
:1006600010BD10B50320C046C04610BD10B5002017
:10067000C046C04610BD10B50020C046C04610BDE3
:1006800010B5002000F0EEFA10BD10B5012000F00A
:10069000E9FA10BD10B50020C046C04610BD10B527
:1006A0000120C046C04610BD10B50020C046C0465F
:1006B00010BD10B50120C046C04610BD10B50020C9
:1006C000C046C04610BD10B50120C046C04610BD92
:1006D00010B50220C046C04610BD10B50420C0466B
:1006E000C04610BD10B50520C046C04610BD10B5AF
:1006F0000620C046C04610BD10B50020C046C0460A
:1007000010BD10B50020C046C04610BD10B5002079
:10071000C046C04610BD10B50020C046C04610BD42
:1007200010B50120C046C04610BD10B50020C0461F
:10073000C04610BD10B50020FFF756FD10BD10B526
:100740000020C046C04610BDF3B50024104F81B054
:100750002646254639460298FFF7E0FC019A3030DC
:10076000105502910A213846641CFFF7D7FC074652
:10077000019800192038C07F302801D1002E04D004
:10078000761C6D1C0A2DE5D3FEBD0024F9E70000A0
:1007900000CA9A3B10B500F057F810BDF7B582B00B
:1007A00000240C600F46064601216846049A00F0BA
:1007B00083FC054601281BD16846007818281BD009
:1007C00005DC012806D0022806D0042800D0002528
:1007D00030700DE0802401E00124A4023070211D5E
:1007E000B01C049A00F068FC0546012815D00024CE
:1007F0003C60284605B0F0BD01216846049A00F02F
:100800005BFC012803D168460078182803D06846AD
:1008100000250078DCE70224DAE7F078B178FF22DF
:10082000504081420DD130190179407909024018B8
:1008300001902146301DFFF7C4FC0146019881421A
:10084000D6D000242546D3E71FB5002000900190A4
:10085000029003901BA000F0BDF803A800F048FA36
:10086000002807D0052825D0042825D0022827D025
:1008700023A022E02A4800F0ADF82A4800F0AAF8A8
:1008800068460399FFF760FF27A000F0A3F86846C9
:1008900000F0A0F827A000F09DF829A000F09AF839
:1008A00000F046FBFFF784FE72B60720800200F0DE
:1008B000D9FB1FBD28A000E037A000F08BF81FBDBA
:1008C0003CA0FAE757616974696E6720666F722011
:1008D0007468652066696C6520746F20626520739A
:1008E000656E74202E2E2E2028707265737320275B
:1008F000612720746F2061626F7274290A0D0000F5
:100900000A0D4661696C656420746F2072656365C9
:10091000697665207468652066696C65210A0D003A
:10092000401100002C0000200A0D2053697A653A1E
:10093000200000002042797465730D0A0000000059
:100940002D2D2D2D2D2D2D2D2D2D2D2D2D2D2D2DD7
:100950002D2D2D0A000000000A0A0D54686520693B
:100960006D6167652073697A6520697320686967BE
:10097000686572207468616E2074686520616C6CB3
:100980006F776564207370616365206D656D6F724C
:1009900079210A0D000000000A0A0D566572696689
:1009A00069636174696F6E206661696C6564210AB0
:1009B0000D0000000D0A0A41626F727465642062C6
:1009C0007920757365722E0A0D00000010B500F0D5
:1009D0002DFB10BD10B5002101E0491C89B2425C1D
:1009E000002AFAD100F014FB10BDF0B50546002432
:1009F0002B7820462246302B2CD16B78782B01D0D7
:100A0000582B27D102241AE01E46413E052E06D956
:100A10001F46613F052F02D93137092F13D81F46D2
:100A20001201303F092F01D83B4604E0052E01D8C2
:100A3000373B00E0573BD218641C0B2C04D22B5DD3
:100A4000002BE1D103E000202B5D002B01D1012020
:100A50000A60F0BD2B5D002B0ED06B2B01D04B2B11
:100A600003D1002C01D0920206E06D2B01D04D2B5A
:100A700005D1002C03D0120501200A6007E01E46B4
:100A8000303E092E09D80A267243303A9A18641C5F
:100A90000B2CDED20128DDD1F0BD0020F0BD00B569
:100AA000FFF7A0FD00BD000010B58AB0002414229D
:100AB000484904A8FFF748FB4648001F0068099012
:100AC00000200190029003904348028869468A8181
:100AD00042884A8182880A81C088C8803E48203086
:100AE000008888803D48016809064A0F3C49130088
:100AF00000F0C2F905042A2C383B6800C1686A4638
:100B000049059289490D914201D1089C5AE0C1687A
:100B10006A4649055289490D914201D1079C51E02D
:100B2000C1686A4649051289490D914201D1069C66
:100B300048E0C1686A464905D288490D914201D111
:100B4000059C3FE0049C3DE00C463BE069468988FB
:100B500042699205920D9142694601D1CC8C31E0F7
:100B60008C8C2FE00124E4032CE0C26BD24392076B
:100B700024D169468989C2685205520D914201D13A
:100B800008991BE069464989C2685205520D914295
:100B900001D1079912E069460989C2685205520DD0
:100BA000914201D1069909E06946C988C268520597
:100BB000520D914201D1059900E00499C26BD20512
:100BC000140F4C4300680AB04005410F2046C8404E
:100BD00010BD00000C110000000C100000200040AF
:100BE0000048E80110B5FFF75FFF03490968C90431
:100BF000890FC84010BD00000020004010B5044619
:100C000001230020044AA3400029116A01D019439E
:100C100000E09943116210BD0020004010B5FFF7BD
:100C200043FF0149086010BD0000002010B50B48CB
:100C3000408881050A48890D4269920A92020A4356
:100C40004261064920390989C2684905490DD20A1D
:100C5000D2020A43C260FFF7E1FF10BD200C100072
:100C60000020004010B5164801690023CA07154945
:100C7000002A0FD0426952085200426100F0F6F893
:100C8000114C0A88A054521C90B208800A2800D344
:100C90000B8010BD012080070269D207F9D042699C
:100CA00052085200426100F0D3F8074C4A880A34D7
:100CB000A054521C90B248800A28EAD34B8010BD41
:100CC000000100400C00002018000020074AFF31FE
:100CD000013140004900CB0500D5401CC30300D5BD
:100CE0005040CB03F5D580B27047000021100000C2
:100CF000F1B5002790B007215048890208973D467A
:100D00003C46016092E0002006460B908AE04C4A87
:100D10000CA94C48FFF742FD01280AD0089800288A
:100D200000D06D1C052D7AD91820FFF74FFE182032
:100D300076E00C9A0025002A0ED0022A07D04149FD
:100D40000B988B78C0B283420BD0152068E0062048
:100D5000FFF73CFE022465E00620FFF737FE012680
:100D600060E00B9800280CD034480068091D00F0A2
:100D70009FF8324800680C994118304801600620FD
:100D80003EE00879002844D000202F4B091D02E0E6
:100D90001A54401C491C0A78002A01D04028F7D375
:100DA00000221A54104604AB01E01A54401C491C9E
:100DB0000A78202A01D01028F7D3002119540DA950
:100DC0001846FFF712FE10982049006888420BD998
:100DD000182069460872012102A800F019F90121C2
:100DE00002A800F015F9052447203921400200F03F
:100DF00080F810980D9901600620FFF7E7FD432069
:100E0000FFF7E4FD0B98401C0B900120089009E0CF
:100E100005E00620FFF7DAFD0126374602E0432011
:100E2000FFF7D4FD3046204300D170E73846204319
:100E300000D168E7204611B0F0BD0000100000208E
:100E4000881300006C0000202C00002001720000BC
:100E5000012080070068C0B27047000002480069A6
:100E60008007C00F70470000000100400148006883
:100E7000C0B270470001004030B47446641E25784B
:100E8000641CAB4200D21D46635D5B00E31830BCBE
:100E9000184702E008C8121F08C1002AFAD170479B
:100EA0007047002001E001C1121F002AFBD17047EA
:100EB000F8B500240E460546002A19D0900702D046
:100EC00092089200121D970810E0A000315C821970
:100ED000507800020843917809040143D078000655
:100EE0000143284600F013F8641C2D1DA742ECD8DE
:100EF000F8BD70B50D460646002404E06002801976
:100F0000FFF750FA641CAC42F8D3012070BD70B5F5
:100F100004460D46800709D12046FFF799FA0028BC
:100F200004D12068A84201D1012070BD002070BD0D
:100F30001CB50521684600F08BF801211C20FFF745
:100F40005DFE0124684604706A4602210020FFF716
:100F5000D9FA684604706A4603210020FFF7D2FAE6
:100F6000044841681022914341604168A1434160B7
:100F70001CBD0000000100401CB50521684600F0C2
:100F800067F801211C20FFF739FE00216846017037
:100F90006A4602210020FFF7B5FA01220221002053
:100FA000FFF7FCFA0121684601706A460321002020
:100FB000FFF7A8FA012203210020FFF7EFFA012131
:100FC0000846FFF71BFE114C6068C0218843403083
:100FD000606060680902884360606068611508436A
:100FE0006060FFF7FFFD61688905C90F0BD008211C
:100FF0004B22D2015143FFF791F8A06160681021A4
:10100000084360601CBD1021F2E7000000010040B1
:1010100030B50C460546002304E0E85C00F006F815
:101020005B1C9BB2A342F8D330BD000000B507495A
:101030000A68120A120202430A60FFF70FFF002833
:10104000FBD0486902229043486100BD0001004086
:10105000002805D00022491E02D30270401CFAE786
:101060007047000010B50168074A1140012252077D
:10107000914207D14168054C21600068FFF72CF8C8
:101080002068804710BD00000000FE2F14000020E3
:10109000012211460748FFF71DF9FFF7ABFAFFF7EA
:1010A0006BFF62B6FFF776FB7D24E4002046FFF776
:1010B00087FAFBE7F9010000F7B582B016460F4644
:1010C000FFF78AFA00240F4D009016E0002E05D09D
:1010D000FFF782FA0099401AB04202D9002005B009
:1010E000F0BD2869C007F1D0686940084000686118
:1010F000286802990855641CA4B2BC42F1D30120AF
:10110000EDE70000000100400080009600093D006E
:1011100000127A000024F4004086510100366E016E
:1011200020000000170000001B00000050460000D7
:10113000E022020018000000F0000000E8030000B8
:101140000A0A0D2050726F6772616D6D696E6720BB
:10115000436F6D706C65746564205375636365736C
:101160007366756C6C79210A0D2D2D2D2D2D2D2D6D
:101170002D2D2D2D2D2D2D2D2D2D2D2D2D2D2D2D9F
:101180002D2D2D2D2D2D2D2D2D0D0A204E616D6512
:101190003A200000B41100000000002018000000F8
:1011A000920E0000CC110000180000206006000024
:1011B000A20E000000093D00000000000000000039
:0C11C00000000000000000000000000023
:04000005000000C136
:00000001FF
