:020000040800F2
:1028000028060020D1280008D7420008D34200083B
:1028100000000000000000000000000000000000B8
:10282000000000000000000000000000DD42000881
:102830000000000000000000DB420008DF4200084A
:10284000E3280008E3280008E3280008E32800083C
:10285000E3280008E3280008E3280008E32800082C
:10286000E3280008E3280008E3280008E32800081C
:10287000E3280008E3280008E3280008E32800080C
:10288000E3280008E3280008E3280008E3280008FC
:10289000E3280008E3280008E3280008E3280008EC
:1028A000E3280008E3280008E3280008094A000894
:1028B000614A0008E3280008E32800080348854629
:1028C00000F00CF900480047994E00082806002047
:1028D0000448804704480047FEE7FEE7FEE7FEE7BE
:1028E000FEE7FEE769430008BD28000830B50B4647
:1028F000014600202022012409E00D46D5409D42DA
:1029000005D31D469540491B25469540401915465F
:10291000521E002DF1DC30BD70B500242546002884
:1029200001DA01244042002901DA01254942FFF77A
:10293000DDFFAC4200D04042002C00D0494270BDC7
:10294000F0B51FB40646002082B005464024019130
:1029500000901BE0019922460F46304600F0ACF88B
:10296000049A059B801A994110D3104619462246B5
:1029700000F092F8361A8F4101972246012000217B
:10298000009F00F089F838184D4100902046641EE1
:102990000028DFDC019B00982946324607B0F0BDD5
:1029A000F0B51FB486B00020009001900290069808
:1029B000069980B204900798090C02040014114390
:1029C00007900027089D099806913E463C460390D3
:1029D0000398A9B20204000C039004982D0C15432F
:1029E00048430021224600F057F8C71971411034BE
:1029F0000E46402CECDB3846029A00F04DF8009A67
:102A0000019B80180090594102980191103002906A
:102A10004028CCDB00980BB0F0BD03460B439B076E
:102A200003D009E008C9121F08C0042AFAD203E043
:102A30000B780370401C491C521EF9D27047D2B269
:102A400001E00270401C491EFBD270470022F6E7ED
:102A500010B513460A4604461946FFF7F0FF204614
:102A600010BD30B505462A460B4610781C78521C1E
:102A70005B1C002801D0A042F7D0002C03D0002816
:102A800002D06D1CEFE7284630BD421C0178401C87
:102A90000029FBD1801A704710B5202A04DB0146BB
:102AA000203A9140002010BD914020239C1A0346FB
:102AB000E3401943904010BD10B5202A04DB0846BE
:102AC000203AD040002110BD0B46D340D0402024F6
:102AD000A21A91400843194610BD0000064C01257A
:102AE000064E05E0E36807CC2B430C3C98471034B6
:102AF000B442F7D3FFF7E6FE4450000864500008E4
:102B00000146002901D1012070472520405C0228A0
:102B100008D00420C86300BF00222420425400BF14
:102B20000120F1E7086800680E2290430A681060EF
:102B3000486C0068FF22013290434A6C10600868BC
:102B40000068400840000A681060124840681C2372
:102B50000A6C1A400123934018430E4A50608A6C55
:102B6000C86C5060086D002809D0086D0068FF220D
:102B7000013290430A6D10604A6D886D50600122E9
:102B80002520425400BF00222420425400BF0020D0
:102B9000BAE700000000024070B504460025252079
:102BA000005D022803D00420E06301253AE020689C
:102BB00000680E218843216808602068006840088A
:102BC000400021680860606C0068FF210131884383
:102BD000616C0860144840681C22216C114001227D
:102BE0008A40104310494860A16CE06C4860206D39
:102BF000002809D0206D0068FF2101318843216D34
:102C00000860616DA06D486001212520015500BF5D
:102C100000212420015500BFA06B002802D02046CF
:102C2000A16B8847284670BD0000024070B504467D
:102C300000F0FAF806462546681C002802D0054830
:102C400000782D1800BF00F0EFF8801BA842FAD3DF
:102C500070BD00000800002070B503460022D5E0DA
:102C6000012696400C683440002C71D04D68012D2F
:102C700008D04D68022D05D04D68112D02D04D6849
:102C8000122D18D1986856000325B5400646AE436C
:102C900030465600CD68B5402843986058680125F5
:102CA00095400646AE43304610264D6835402D0906
:102CB000954028435860D86856000325B54006461D
:102CC000AE43304656008D68B5402843D8604D6805
:102CD000022D02D04D68122D15D1D508AE001D462B
:102CE0002035A8595507EE0E0F25B5400646AE43D0
:102CF00030465607F60E0D69B5402843D508AD009D
:102D00001E4620367051186856000325B540064609
:102D1000AE4330460D79AD07AD0F5600B5402843A0
:102D20001860012636074D683540B5426DD13A4DE1
:102D30009608B600A8599507EE0E0F25B540064631
:102D4000AE43304605252D07AB4202D1002510E0E9
:102D50005BE0324DAB4201D101250AE0304DAB4280
:102D600001D1022505E02F4DAB4201D1032500E042
:102D700005259607F60EB5402843274D9608B60060
:102D8000A851254D203528680546A543284601262B
:102D900036044D683540B54202D1054625432846E4
:102DA0001D4D2035286068680546A5432846012644
:102DB00076044D683540B54202D105462543284684
:102DC000154D20356860144D603D28680546A543C3
:102DD0002846012636054D683540B54202D10546E4
:102DE000254328460C4D603D286068680546A5438C
:102DF0002846012676054D683540B54202D1054684
:102E000025432846044D603D6860521C0D68D5403E
:102E1000002D00D024E770BD60180240000400506F
:102E200000080050000C0050014800687047000086
:102E30000000002003480068034909784018014950
:102E400008607047000000200800002010B5002432
:102E500008480068FF210131084306490860002046
:102E600000F00AF8002801D0012401E000F034F855
:102E7000204610BD00200240F8B504460025134846
:102E8000007800281ED0114801787D20C000FFF78F
:102E90002DFD074639460E480068FFF727FD064618
:102EA00000F066FE00280BD1042C07D20022214638
:102EB000401E00F049F80748046004E0012502E0E4
:102EC000012500E001252846F8BD0000080000208B
:102ED0000C0000200400002008B500BF1048006866
:102EE000012108430E49086008460068C007C00F6A
:102EF000009000BF00BF00BF09484038C06B890583
:102F0000084307494039C8630846C06B09040840B4
:102F1000009000BF00BF0320400200F01DFE08BD6E
:102F2000401002400146002909DB00BF00BFCB066C
:102F3000DB0E01229A40034B1A6000BF00BF00BFA6
:102F40007047000000E100E070B504460D461646EB
:102F50002946204601F0D4FD70BD000070B504463E
:102F60001148006803214902884320430E49086044
:102F70004815844216D10D49096806225143084676
:102F80000B49FFF7B3FC451C05E0002D01D06D1E79
:102F900001E0032070BD0448406901218902084016
:102FA0008842F2D00020F5E7007000400C000020BD
:102FB00040420F00FEB50446002700200290012188
:102FC00049042068084088427BD100200190B34822
:102FD000C06BC902084000280ED100BFAF48C06BCB
:102FE0000843AE49C8630846C06B09040840009016
:102FF00000BF00BF01200190A9480068FF210131F6
:103000000843A7490860FFF70FFF064606E0FFF7F1
:103010000BFF801B022801D9032706E0A0480068A7
:10302000FF21013108400028F1D000BF002F4BD113
:103030009A484030C569032109020D40002D1AD07D
:10304000206BA84217D095484030C0698843054698
:1030500092484030C0690121090408438F4940313A
:10306000C8610846C0690121090488438B49403181
:10307000C8610846C561E807C00F002813D0FFF7F4
:10308000D3FE064607E0FFF7CFFE801B8549884246
:1030900001D9032706E081484030C0690221084079
:1030A0000028F0D000BF002F0CD17C484030C06910
:1030B000032109028843216B084378494031C861E4
:1030C00003E00DE0029700E002970198012806D185
:1030D0007248C06B0121090788437049C86300BF6B
:1030E0002078C007C00F002809D06C4840304069E4
:1030F00080088000616808436849403148610221C6
:1031000020680840022809D16448403040690C21F9
:103110008843A16808436149403148611021206813
:10312000084010280AD15D484030406903218902D7
:103130008843E16808435949403148610121490207
:103140002068084088420AD1544840304069032131
:1031500089048843A16908435049403148610121ED
:1031600089022068084088420AD14C4840304069B2
:10317000032109058843E169084348494031486112
:1031800020212068084020280AD144484030406966
:1031900003210903884321690843404940314861BC
:1031A0000121890320680840884213D13B48403000
:1031B000406980008008216A0843384940314861ED
:1031C0000906206A884205D13448C068891308433B
:1031D0003249C8600121C90420680840884209D1E9
:1031E0002E484030406940218843616A08432B499A
:1031F000403148610121490520680840884214D1C6
:1032000026484030406949008843A16A0843234961
:103210004031486101218905A06A884205D11F48D3
:10322000C068890008431D49C860012189052068DC
:103230000840884213D119484030406989008843CA
:10324000E16A084315494031486101210906E06AF5
:10325000884204D11148C06808431049C860012160
:10326000C90220680840884215D10C4840304069A6
:103270000321890388436169084308494031486153
:10328000012189036069884205D10448C06889002A
:1032900008430249C8600298FEBD000000100240C9
:1032A000007000408813000070B504460D46002CE5
:1032B00001D1012070BD6B4800684007400FA84253
:1032C00018D268480068C008C000284365490860F3
:1032D000FFF7AAFD064607E0FFF7A6FD801B62493F
:1032E000884201D90320E5E75E4800684007400FA7
:1032F000A842F1D1022120680840022815D10421FA
:1033000020680840042807D158488068072109032D
:103310008843401855498860544880680F21090245
:103320008843A1680843514988602078C007C00FCE
:10333000002854D06068012808D14C480068012159
:103340004904084000282ED10120B3E76068022814
:1033500008D146480068012149060840002822D1CA
:103360000120A7E76068002808D1404800680121D3
:1033700089020840002816D101209BE760680328D5
:1033800008D13A484030006A0221084000280AD19A
:1033900001208FE735484030C069022108400028ED
:1033A00001D1012086E731488068C008C00061680B
:1033B00008432E498860FFF737FD064607E0FFF710
:1033C00033FD801B2849884201D9032072E7274832
:1033D0008068382108406168C9008842EFD12148DF
:1033E00000684007400FA84218D91E480068C0086E
:1033F000C00028431B490860FFF716FD064607E09A
:10340000FFF712FD801B1849884201D9032051E7BC
:10341000144800684007400FA842F1D104212068F9
:103420000840042808D1114880680721090388430F
:10343000E16808430D49886000F03AF80B49896853
:103440000F2212021140090A8900094A515CC9067B
:10345000C90EC8400749086007480068FFF70CFD1F
:1034600028E70000002002408813000000100240FE
:10347000C04F00080C000020040000200148006834
:10348000704700000C00002000B5FFF7F7FF064969
:103490008968072212031140090B8900034A515C15
:1034A000C906C90EC84000BD001002400050000807
:1034B000FEB5354880683821084000280DD13248D3
:1034C000006809020840C10A0120884000902F4886
:1034D0000099FFF70BFA044654E02B488068382126
:1034E0000840082801D12A4C4CE027488068382140
:1034F0000840102834D12448C0688607B60F2248F7
:10350000C068702108400009401C0190022E0FD0B5
:10351000032E0CD11E480199FFF7E8F91A49C96832
:103520007F2212021140090A484305460DE000BF00
:1035300016480199FFF7DAF91349C9687F22120288
:103540001140090A4843054600BF00BF0E48C06845
:10355000400F471C39462846FFF7C8F9044611E0DA
:103560000948806838210840202801D1840209E0F8
:103570000548806838210840182802D17D2424029B
:1035800000E000242046FEBD001002400024F400AC
:1035900000127A00FEB50446002C01D10120FEBDC8
:1035A0002078C007C00F00286FD0F74887683821FF
:1035B0000F40C0688607B60F102F01D1032E01D02F
:1035C000082F0BD1F0480068012149040840002869
:1035D0005BD06068002858D10120E0E700BF0121DE
:1035E00009046068884205D1E74800680843E64955
:1035F000086021E005210904606888420ED1E24894
:103600000068012189040843DF4908600846006812
:10361000012109040843DC4908600DE0DA4800682C
:10362000012109048843D84908600846006801213F
:1036300089048843D449086000BF6068002812D01C
:10364000FFF7F2FB054606E0FFF7EEFB401B6428A0
:1036500001D90320A3E7CC480068012149040840B0
:103660000028F1D011E0FFF7DFFB054606E0FFF789
:10367000DBFB401B642801D9032090E7C2480068A7
:103680000121490408400028F1D1022120680840A6
:10369000022873D1BC488068382108400746BA48E0
:1036A000C0688607B60F102F01D1022E01D0002F5F
:1036B00036D1B5480068012189020840002804D0AD
:1036C000E068002801D1012069E7AF4840687F2108
:1036D00009028843616909020843AB494860002F29
:1036E00016D1084600680721C902884321690843AA
:1036F000A5490860084600680722D2021040C20AA5
:10370000012090400146A148FFF7F0F8A049086069
:10371000A0480068FFF7B0FB002849D001203EE731
:10372000E06800282BD0984800680721C902884328
:1037300021690843944908600846006889150843D0
:1037400091490860FFF770FB054606E0FFF76CFB48
:10375000401B022801D9032021E78B480068012182
:10376000890208400028F1D0874840687F2109027B
:1037700088436169090208438349486018E0824828
:103780000068FF21013188437F490860FFF74CFB47
:10379000054606E0FFF748FB401B022801D903203D
:1037A000FDE6794800680121890208400028F1D12E
:1037B000082120680840082849D1734880683821CA
:1037C000084018280BD170484030006A0221084098
:1037D00000283CD0A069002839D10120DFE6A0698B
:1037E00000281AD068484030006A01210843664921
:1037F00040310862FFF718FB054606E0FFF714FBAF
:10380000401B022801D90320C9E65F484030006A06
:10381000022108400028F1D019E05B484030006ADE
:1038200040084000584940310862FFF7FDFA05465C
:1038300006E0FFF7F9FA401B022801D90320AEE6A3
:1038400051484030006A022108400028F1D104218B
:103850002068084004287CD1002001904A488068F4
:103860003821084020280BD147484030C069022148
:10387000084000286ED0A06800286BD101208EE699
:103880004148C06B010F01208843002810D000BFC1
:103890003D48C06B0121090708433B49C8630846FE
:1038A000C06B09040840009000BF00BF01200190D8
:1038B00039480068FF2101310840002816D13648F8
:1038C0000068084334490860FFF7AEFA054606E091
:1038D000FFF7AAFA401B022801D903205FE62E4811
:1038E0000068FF21013108400028F1D000BFA06826
:1038F000012808D124484030C069012108432249E9
:103900004031C86120E0A06805280FD11E48403032
:10391000C069042108431C494031C8610846C06998
:103920000121084318494031C8610DE01648403074
:10393000C0694108490014484030C161C069042190
:10394000884311494031C86100BFA068002816D0E3
:1039500001E040E03EE0FFF767FA054607E0FFF7C9
:1039600063FA401B0D49884201D9032017E6064837
:103970004030C069022108400028F0D01EE0FFF767
:1039800053FA054614E00000001002400024F40041
:103990000C0000200400002000700040881300008C
:1039A000FFF742FA401B6849884201D90320F6E537
:1039B0006648C069022108400028F1D10198012819
:1039C00008D162484038C06B0121090788435F492C
:1039D0004039C86300BFE06900285CD05B484038CC
:1039E00080683821084010286FD0E069022853D140
:1039F0005648403800680121090688435349403938
:103A00000860FFF711FA054606E0FFF70DFA401BC4
:103A1000022801D90320C2E54C4840380068012142
:103A2000490608400028F0D1616A206A0843A16A6B
:103A300009020843E16A0843216B0843616B0843AC
:103A400042494039C968424A114008433F49403918
:103A5000C860084600680121090608433B4940390F
:103A600008600846C0680904084338494039C860FE
:103A7000FFF7DAF9054606E0FFF7D6F9401B022802
:103A800001D903208BE531484038006801214906FF
:103A900008400028F0D054E02C484038006801214C
:103AA000090688432949403908600846C0688008EB
:103AB0008000C8600846C06826490840234940394C
:103AC000C860FFF7B1F9054607E00FE0FFF7ACF972
:103AD000401B022801D9032061E51C4840380068DA
:103AE0000121490608400028F0D12AE0E0690128B8
:103AF00000D154E515484038C668B107890F206ADF
:103B000081421CD170203040616A884217D17F20E9
:103B100000023040A16A0902884210D11F204004EF
:103B20003040E16A88420AD1072040063040216BCC
:103B3000884204D1710F4907606B814201D0012096
:103B40002DE500202BE50000881300004010024006
:103B50008C80C111FFFFFEEE044909680322520266
:103B600091430143014A1160704700000000014089
:103B700070B504462546681E0949884201D90120CE
:103B80000CE0681E074948610321081F00F0B8FFD8
:103B900000200449886107200861002070BD0000F2
:103BA000FFFFFF0000E000E0014600BF8020405C16
:103BB000012801D10220704701238020435400BF17
:103BC000242384204350086802680868006840087D
:103BD00040000B68186001235B07104698430246BB
:103BE000002048660868026020238420435000BFFC
:103BF00000238020435400BF0020DCE7704770475B
:103C000070B504460D4600BF8020005D012801D13B
:103C1000022070BD01218020015500BF2421842095
:103C2000015120680668206800684008400021684B
:103C30000860206880680721490688432843216876
:103C40008860204600F098FB2068066020218420D0
:103C5000015100BF00218020015500BF0020D8E79E
:103C600070B504460D4600BF8020005D012801D1DB
:103C7000022070BD01218020015500BF2421842035
:103C800001512068066820680068400840002168EB
:103C9000086020688068C000C008284321688860E8
:103CA000204600F069FB2068066020218420015135
:103CB00000BF00218020015500BF0020D9E77047D8
:103CC00070477047FEB504462068C56920680668DD
:103CD00020688768D348284002900298002813D1B2
:103CE0002020284000280FD020203040002804D178
:103CF000012000073840002806D0206F002802D09D
:103D00002046216F8847FEBD029800287ED0C64815
:103D10003840002803D1C54830400028F6D0E807D5
:103D2000C00F00280DD0FF2001303040002808D0FF
:103D30000120216808628C200059012108438C2150
:103D400008510220284000280CD0F807C00F002896
:103D500008D00220216808628C2000590421084301
:103D60008C2108510420284000280CD0F807C00FEF
:103D7000002808D00420216808628C200059022104
:103D800008438C21085108202840002810D020200A
:103D90003040002803D1A4483840002808D008202B
:103DA000216808628C200059082108438C210851A1
:103DB0000120C002284000280ED00120800630409B
:103DC000002809D00120C002216808628C20005917
:103DD000202108438C2108518C20005900284DD007
:103DE0002020284000280ED020203040002804D178
:103DF000012000073840002805D0206F002802D09D
:103E00002046216F88478C20005900E037E0019060
:103E10002068806840210840402804D0282101986B
:103E20000840002824D0204600F0A8FB20688068C5
:103E300040210840402817D12068806888432168C5
:103E40008860E06F00280BD07948E16F8863E06FED
:103E5000FEF7A2FE002811D0E06F816B88470DE0CD
:103E60002046FFF72EFF09E02046FFF72AFF05E076
:103E70002046FFF726FF00218C20015143E7E06E2A
:103E800001287CD11020284000287CD01020304010
:103E9000002878D0102021680862206880684021BE
:103EA0000840402840D1E06F0068406880B2009030
:103EB0000098002837D05C20015B0098814232DDF9
:103EC0005E2100980853E06F0068006820210840D8
:103ED00000281FD120680068C90088432168086055
:103EE00020688068400840002168886020688068F9
:103EF00040218843216888602021882001510020CA
:103F0000E066206800681021884321680860E06F3F
:103F1000FEF7F6FD5C20025B5E20005B101A81B2AA
:103F20002046FFF76BFEEEE65C20015B5E20005B47
:103F3000081A80B200905E20005B002822D0009812
:103F400000281FD020680068FF21213188432168A4
:103F50000860206880683449C94308402168886047
:103F60002021882001510020E06620672068006839
:103F700010218843216808602046009900E002E093
:103F8000FFF73CFEBFE601200005284000280CD0CA
:103F9000012080053840002807D001200005216855
:103FA00008622046FFF78CFEADE6802028400028FE
:103FB0000FD080203040002804D10120C0053840B7
:103FC000002806D0606F002802D02046616F884725
:103FD00099E640202840002807D0402030400028A3
:103FE00003D0204600F0EAFA8DE60120C005284003
:103FF000002808D0012080073040002803D0204648
:10400000FFF75DFE7FE6012000062840002807D06C
:10401000F00FC007002803D02046FFF7F0FD72E63E
:1040200000BF70E60F08000001000010200100042E
:104030006545000810B50446002C01D1012010BDD3
:10404000A069002800D000E000BF842000590028AB
:1040500005D1002180200155204600F02DF82421B3
:1040600084200151206800684008400021680860F1
:10407000204600F0B5FA012800D1E0E7A06A002848
:1040800002D0204600F0BAF9206840680921C90230
:10409000884321684860206880682A218843216815
:1040A0008860206800680121084321680860204674
:1040B00000F01CFAC3E7000010B586B004461421D6
:1040C00001A8FEF7C3FC3D492068884237D100BFF4
:1040D0003B480068012189030843394908600846C4
:1040E0000068012189030840009000BF00BF00BFA5
:1040F00033484038406B0121084331494039486317
:104100000846406BC007C00F009000BF00BF0320EF
:1041100040020190022002900020039004900120B0
:10412000059001A905200007FEF796FD1B20FEF76C
:10413000F9FE002202211B20FEF706FF3BE0214989
:104140002068884237D100BF1D484038C06B01212C
:10415000490408431A494039C8630846C06B012125
:1041600049040840009000BF00BF00BF1448403819
:10417000406B012108431249403948630846406BAF
:10418000C007C00F009000BF00BF0C2001900220AC
:1041900002900020039004900120059001A90520C1
:1041A0000007FEF759FD1C20FEF7BCFE012202218C
:1041B0001C20FEF7C9FE06B010BD0000003801400B
:1041C0004010024000440040FFB583B004460D4655
:1041D000174684200059202878D1002D01D0002FC7
:1041E00002D1012007B0F0BD01210903A068884277
:1041F00008D12069002805D1E807C00F002801D0A8
:104200000120EFE700BF8020005D012801D10220DE
:10421000E8E701218020015500BF00218C200151D9
:10422000212184200151FEF7FFFD01905420075306
:104230005620075301210903A068884205D120694F
:10424000002802D10026029502E02E4600200290AE
:1042500000BF00218020015500BF21E0069800909A
:10426000002280212046019B00F06AFB002801D03B
:104270000320B7E7002E09D102980088C005C00DC1
:10428000216888620298801C029003E030782168DF
:104290008862761C5620005B401E81B25620015376
:1042A0005620005B0028D9D10698009000224021BA
:1042B0002046019B00F044FB002802D0032091E738
:1042C00004E020218420015100208BE7022089E7AF
:1042D000704700BFFEE700BFFEE77047704710B5AC
:1042E000FEF7A8FD10BD00B59FB0382111A8FEF75C
:1042F000ADFB00200D900E900F9010903421684679
:10430000FEF7A4FB01204002FEF728FE02201190D8
:10431000C0011490002015904020169002201890A3
:104320000221199100211A9108211B9101041C916D
:1043300001061D9101071E9111A8FFF72BF9072017
:104340000D9002200E9000200F90109002210DA8D9
:10435000FEF7AAFF0320009000200190029068461B
:10436000FEF728FE1FB000BD014802498860704773
:104370000028000800ED00E0F0B585B004461BA160
:1043800003C9039102901BA103C901910090606EC3
:10439000002805D101216A2001536820015322E041
:1043A00008270822049220688068072149060840EF
:1043B000450E20688068460F6A46915D02AA935DAB
:1043C000049A53431846FEF7A7FA81B26A200153B4
:1043D0006A46515D02AA525D7A431046FEF79CFA86
:1043E00081B26820015305B0F0BD00000101010356
:1043F000070100000804020408010101018DC9073A
:10440000C90F002908D0016849680122520491436C
:10441000C26A1143026851600222816A1140022976
:1044200007D101684968D2039143026B11430268C6
:1044300051600422816A1140042907D1016849684A
:1044400012049143426B1143026851600822816A51
:104450001140082907D10168496812039143826B12
:104460001143026851601022816A1140102907D15E
:104470000168896812029143C26B1143026891601E
:104480002022816A1140202907D10168896812021F
:104490009143026C1143026891604022816A11408D
:1044A000402915D10168496892039143426C114338
:1044B0000268516001221205416C914208D10168E5
:1044C0004968032252059143826C1143026851608E
:1044D0008022816A1140802907D10168496812034E
:1044E0009143C26C114302685160704738B504466D
:1044F00000218C200151FEF797FC054620680068DA
:104500000821084008280BD115482B4600228904B1
:104510000090204600F014FA002801D0032038BD96
:10452000206800680421084004280BD10C482B4661
:10453000002209050090204600F002FA002801D070
:104540000320ECE720218420015188200151002024
:10455000E06600BF00218020015500BF0020DEE79B
:10456000FFFFFF0170B50546AC6A00215E200153D4
:10457000562001532046FFF7A4FB70BD016809686F
:10458000FF222132914302681160016889680A4A5A
:10459000114002689160C16E012905D10168096866
:1045A0001022914302681160202288210A500021C4
:1045B000C166016770470000FEFFFFEF10B50446BB
:1045C00020680068402188432168086020218420F9
:1045D0000151002060672046FFF77AFE10BD000001
:1045E000F0B58DB0044600200590C9492068884286
:1045F00000D100E000BF2169A06808436169084359
:10460000E16908430790606E0799084307902068A6
:104610000068C0490840079908432168086020687D
:104620004068032109038843E16808432168486022
:10463000A0690790B6492068884203D0206A07998C
:104640000843079020688068B349084007990843E9
:10465000216888602068C06A00090001616A084317
:104660002168C86200BFAD492068884217D1AC48B4
:1046700040698007800F002806D0012808D0022852
:1046800004D0032808D105E0002507E0022505E055
:10469000042503E0082501E0102500BF47E0A149FB
:1046A0002068884217D19E4840690C2108400028A4
:1046B00006D0042808D0082804D00C2808D105E02A
:1046C000002507E0022505E0042503E0082501E0B8
:1046D000102500BF2BE094492068884201D10025B5
:1046E00025E092492068884201D100251FE08849D1
:1046F000206888421AD18A4840690321890208400B
:10470000002808D001218902401A08D0401A04D09C
:10471000401A08D105E0002507E0022505E0042540
:1047200003E0082501E0102500BF00E0102500BFD0
:1047300077492068884263D1002D06D0022D08D029
:10474000042D08D0082D0DD109E0FEF79DFE064688
:104750000CE0774E0AE0FEF7ABFE064606E00126C7
:10476000F60303E000260120059000BF00BF002EE5
:1047700014D0606A40006F4A115A3046FEF7B6F80E
:1047800004906068410041180498814204D8606830
:1047900001030498814202D201200590ADE0606AD5
:1047A00040006449085A02460023019030461946E9
:1047B000FEF7C6F8FF2301330022099308920A91FD
:1047C0000B901A46089BFEF7EBF86268520800232C
:1047D0008018594103910290606802460190029846
:1047E000FEF7AEF80746032109028F4205D352486F
:1047F000874202D82068C7607FE0012005907CE0F6
:104800000121C903E069884241D1002D06D0022D63
:1048100008D0042D08D0082D0DD109E0FEF734FE94
:1048200006460CE0424E0AE0FEF742FE064606E06F
:104830000126F60303E000260120059000BF00BF1B
:10484000002E5AD0606A40003A4A115A3046FEF7AC
:104850004DF8400061684908401803906168FEF710
:1048600045F887B2102F0FD3344887420CD833480D
:104870000F38384006903807400F069908430690D5
:1048800006982168C86038E00120059035E0002DC9
:1048900006D0022D08D0042D08D0082D0DD109E036
:1048A000FEF7F2FD06460CE0214E0AE0FEF700FEA0
:1048B000064606E00126F60303E0002601200590E7
:1048C00000BF00BF002E18D0606A4000194A115A7C
:1048D0003046FEF70BF8616849084018039061689C
:1048E000FEF704F887B2102F05D31448874202D888
:1048F0002068C76001E00120059001216A20015372
:104900006820015300202067606705980DB0F0BD56
:1049100000800040F369FFCFFFF4FF110038014031
:10492000401002400044004000480040004C00405D
:104930000024F400A04F0008FFFF0F00FFFF00005D
:10494000FFB581B004460D4617460A9E4FE0701C25
:1049500000284CD0FEF768FA0499401AB04201D8FA
:10496000002E19D120680068FF21A13188432168F9
:104970000860206880684008400021688860202125
:10498000842001518820015100BF00218020015561
:1049900000BF032005B0F0BD206800680421084076
:1049A000002824D02068C06949020840C00A0028B5
:1049B0001DD008462168086220680068FF21A131E7
:1049C00088432168086020688068400840002168AA
:1049D0008860202184200151882001518C200151C0
:1049E00000BF00218020015500BF0320D2E72068CE
:1049F000C0692840A84201D1012000E00020B8424F
:104A0000A5D00020C6E7000008B50020009010489F
:104A10000068C069202108404009002814D00D48D2
:104A2000406AC1B20091684601780B48028800884C
:104A3000401C094B188009488154184600883228C8
:104A400002DB0020194608800148FFF73BF908BD4A
:104A5000340000200038014014000020C400002071
:104A600008B50020009010480068C0692021084067
:104A70004009002814D00D48406AC1B20091684630
:104A800001780B4802880088401C094B18800948AF
:104A9000815418460088322802DB0020194608801D
:104AA0000148FFF70FF908BDF8000020004400405E
:104AB00016000020880100200FB410B503A9044B94
:104AC000044A029800F067F810BC08BC04B018470C
:104AD0002D4D0008100000200FB410B504A9074B9D
:104AE00002AA039800F057F8044602A9002000F03B
:104AF000BBF8204610BC08BC04B01847694C00083D
:104B000010B5002819DB1A4A03231B02D2188308A8
:104B10009B00D2588307DC0EFF23A3409A438B07E8
:104B20001B0E8407E40EA3401A43114B03242402F6
:104B30001B198408A4001A5118E00E4A03071B0F22
:104B4000083B9B089B00D2588307DC0EFF23A34041
:104B50009A438B071B0E8407E40EA3401A43054BB0
:104B60000407240F083CA408A4001A5110BD00003B
:104B700000E100E01CED00E002E008C8121F08C1DF
:104B8000002AFAD170477047002001E001C1121FCE
:104B9000002AFBD17047FFB581B00546002706E02B
:104BA00025280AD0049A039990476D1C7F1C287809
:104BB0000028F5D1384605B0F0BD002269786D1C9B
:104BC00010462E2913D1697804226D1C2A2909D197
:104BD00002996D1C01C9029109E00A23584330383B
:104BE00008186D1C29780B46303B092BF5D92B781A
:104BF000002BDFD0632B07D0732B10D0049A1846FC
:104C0000039990477F1C2DE002996C460B78237026
:104C1000091D0291002161706E46012104E0029994
:104C200040C902910021C94352070AD5002400E07F
:104C3000641C84420DDA8C42FADB325D002AF7D123
:104C400007E0002400E0641C8C42FCDB305D00289F
:104C5000F9D13F1904E03078049A761C0399904703
:104C6000641EF8D26D1CA2E70A68531C0B6010701A
:104C7000704710B5FEF7EAF8FFF735FB00F010F8C3
:104C800062B610BD70B504460D46034B2A46214658
:104C90000248FFF799FA70BDFFFF000034000020C2
:104CA00010B5164816490860E1204002486000210E
:104CB00013488160C16001610C2141610021816163
:104CC000C1610162416200200D4988620846FFF718
:104CD000B1F900210A48FEF7C3FF00210848FEF79A
:104CE0008FFF0748FEF760FF054800680068202135
:104CF000084303490968086010BD000000440040F3
:104D0000F800002010B56C210548FDF79FFE322108
:104D10000448FDF79BFE00200349088010BD0000F9
:104D2000BC010020880100201600002013B50C46AD
:104D3000034B012269460348FFF746FA00981CBD61
:104D4000FFFF0000F800002070B58EB005460E464B
:104D5000342101A8FDF77AFE07A30AA20BA101A83E
:104D6000FFF7BAFE01A8FDF790FE84B2214601A824
:104D700000F0E4F80EB070BD53544D333247303775
:104D80003152420056302E30310000006765745FAA
:104D90006465766963655F76657273696F6E3D25DC
:104DA0007320282573290D0A0000000010B500F0BB
:104DB00013F80649086000F00BF804460348214642
:104DC00002680830FDF729FE10BD0000BC0100207C
:104DD00000487047880100200148008870470000A3
:104DE00016000020F0B58DB006460F463421684607
:104DF000FDF72CFE13A16846FFF76EFE6846FDF72F
:104E000044FE84B22146684600F098F8002414E07D
:104E100034216846FDF71AFEE0000D490A580DA13D
:104E20006846FFF759FE6846FDF72FFE85B2294612
:104E3000684600F083F8601CC4B2032CE8D30DB0C0
:104E4000F0BD0000636D64206C6973743A0D0A0054
:104E50001800002025730D0A0000000072B600BF84
:104E600000BF00BF00BF00BFBFF34F8F00BF00BF38
:104E700000BF07480749C86000BF00BF00BFBFF3BD
:104E80004F8F00BF00BF00BF00BF00BFFDE70000A5
:104E90000400FA0500ED00E00024FFF7EAFE0CA094
:104EA000FFF70AFE12E00A20FDF7C0FE601C84B284
:104EB00005212046FDF730FD002901D100F05AF808
:104EC000642C03DB002406A0FFF7F6FDEBE70000EF
:104ED0000D0A20656E74657220617070200D0A00E5
:104EE00072756E2E2E2E0D0A0000000070B504465D
:104EF0000D46FFF7B3FF70BD70B5002415E0E0006C
:104F00000C4A11580C48FDF7ACFD0546002D0AD09F
:104F100009480838008881B2E000064BC018426892
:104F20000548904770BD601CC4B2032CE7D300BF96
:104F3000F8E7000018000020C401002070B5054605
:104F40000C46224629460648FDF767FD04483A38D4
:104F50004460808881B20248FFF794FE70BD000073
:104F6000F601002010B5FFF721FFFFF7C5FFFFF79F
:104F7000C9FE10BD10B5FFF72FFF0446002C07D067
:104F800004480088844201D1FFF7ECFF0148048007
:104F900010BD000030000020081C3044586C800018
:104FA000010002000400060008000A000C001000C6
:104FB0002000400080000001081C3044586C800034
:104FC00000000000000000000000000000000000E1
:104FD00000000000000000000000000000000000D1
:104FE00001000000020000000300000004000000B7
:104FF0000600000007000000080000000900000093
:1050000000000000000000000000000000000000A0
:105010000100000002000000030000000400000086
:105020006765745F6465766963655F7665727369E9
:105030006F6E000068656C70000000007265626F42
:105040006F7400006450000800000020340000006D
:10505000784B00089850000834000020F405000048
:10506000884B000800000000040000000100000060
:105070000024F4000000000000000000345000088C
:10508000E54D00083C500008ED4E00082050000897
:08509000494D0008000000007A
:04000005080028BD0A
:00000001FF
