:020000040800F2
:10000000280F0020D9000008A5070008F903000800
:1000100000000000000000000000000000000000E0
:100020000000000000000000000000003B09000884
:100030000000000000000000A7070008530B0008A4
:10004000EB000008EB000008EB000008EB000008E4
:10005000EB000008EB000008EB000008EB000008D4
:10006000EB000008EB000008EB000008EB000008C4
:10007000EB000008EB000008EB000008EB000008B4
:10008000EB000008EB000008EB000008EB000008A4
:10009000EB000008EB000008EB000008EB00000894
:1000A000EB000008EB000008EB0000086D0B0008F7
:1000B000890B0008EB000008EB00000803488546A8
:1000C00000F048F80048004721120008280F0020DF
:1000D00080F30888704700000448804704480047C0
:1000E000FEE7FEE7FEE7FEE7FEE7FEE75D0B000842
:1000F000BD00000830B50B46014600202022012437
:1001000009E00D46D5409D4205D31D469540491B4B
:100110002546954040191546521E002DF1DC30BD94
:10012000D2B201E00270401C491EFBD2704700228F
:10013000F6E710B513460A4604461946FFF7F0FFE6
:10014000204610BD421C0178401C0029FBD1801ABA
:1001500070470000064C0125064E05E0E36807CC19
:100160002B430C3C98471034B442F7D3FFF7AAFF57
:10017000D0130008F013000830B5044600206518BD
:1001800003E02178641C00F029FDAC42F9D3002182
:1001900000F024FD002100F021FD30BD03494A6933
:1001A00001231B04184302434A61704700200240A8
:1001B000054A5069FF23F9339843C90001430348B6
:1001C000014351617047000000200240020001001D
:1001D00030B505494C6901252C434C610260BFF3E1
:1001E0006F8F436030BD00000020024030B50B4CE3
:1001F000002362690125AD042A436261EFF3108296
:1002000072B620C95B1C20C0DBB2402BF9D3206939
:10021000C003FCD482F3108830BD000000200240EF
:10022000F8B5054600F0CCF8471901263604114C04
:1002300003E000F0C5F8B84214D220693042F8D18A
:1002400021690D4801400D48206103D00C484160F0
:100250000120F8BD00F0B4F8451905E000F0B0F851
:10026000A84201D30320F8BD20694003F6D4002042
:10027000F8BD000000200240FAC30000FBC30000EC
:100280001800002002480169022291430161704771
:1002900000E000E0F8B51F4E044630780F46012814
:1002A0000AD001203070002070607D20C000FFF770
:1002B000B7FF002802D029E00220F8BD04216160C8
:1002C0002268042A03D0491F3960A56814E0084653
:1002D000FFF764FF7D20C000FFF7A2FF16E029466C
:1002E0006068FFF765FF7D20C000FFF799FF0028D9
:1002F00001D03D6005E06D1CE268A1688918A94243
:10030000EDD805494A6902239A434A6100213170B8
:10031000F8BD00001800002000200240054901201F
:100320004A69C3071A434A614969002900DA002073
:100330007047000000200240F0B51FB4144C064680
:100340002078154601280AD00120207000277D2042
:10035000C0006760FFF764FF002803D010E00220B0
:1003600005B0F0BD012E0DD029460198FFF73EFFE4
:100370007D20C000FFF754FF06494A69B2434A6135
:100380002770EDE72A46039B0198FFF721FFEFE76F
:100390001800002000200240064900204A69002A77
:1003A00007DA054A8A60054A8A604969002900DA45
:1003B000012070470020024023016745AB89EFCD43
:1003C00001480068704700000000002002480168F2
:1003D000491C0160704700000000002005480449E6
:1003E000416100218161052101610721016170479F
:1003F0007F3E000000E000E0FEE70000F3B50024CF
:10040000104F81B02646254639460298FFF772FE06
:10041000019A3030105502910A213846641CFFF7CA
:1004200069FE0746019800192038C07F302801D1A5
:10043000002E04D0761C6D1C0A2DE5D3FEBD0024D1
:10044000F9E7000000CA9A3BF0B500244CE0012314
:10045000A3401A4047D04B68012B01D0022B0FD18B
:100460008E688568134653435F00DF19BD437343AD
:100470001D438560CB684568534395431D434560E4
:100480000F69C668134653435D005D19AE435F4371
:100490003E43C6604E68022E1FD1FF2A0ED8174673
:1004A0004A69066A94461A467A437A431701BF1A84
:1004B000BE4367467A43164306620EE0160A32468A
:1004C00072434F6972437243BC461601B71A466ABB
:1004D000BE4367467A43164346624A6806685343FA
:1004E000AE431E430660641C0A681346E340AED167
:1004F0000020F0BD08B504494A6B02434A63496BCA
:100500000140009108BD00000010024010B57D219F
:10051000C900FFF7EFFD0449401E486100208861D3
:100520000520086110BD000000E000E010B50446A1
:1005300000F05AF9206000F037F9606000F044F9EB
:10054000A06010BD70B501260024194DF6030328E4
:1005500002D00C2815D029E000F030F815494018D9
:1005600004D001281BD0022803D113E000F03CF98D
:1005700005E000F039F900F017F900F025F904461C
:1005800014E000F01BF80C494018EFD0042806D006
:100590000828EED100F022F8012806D006E000F08D
:1005A00015F8012802D12C4600E03446204670BDE3
:1005B0000024F400FFFFFCFFFCFFF3FF0249496940
:1005C00001400004084370474010024002480068A0
:1005D0004005C00F70470000001002400248C0698B
:1005E0008007C00F70470000401002400248C068FA
:1005F0007021084070470000001002400248C068A7
:100600008007800F70470000001002400248C06859
:100610004004400E7047000000100240014908608D
:10062000704700000400002041680922D202914373
:10063000416081682A22914381607047144B0022F7
:100640001449984208D101200B6B800303430B63CC
:100650000B6B83430B6318E00F4B984202D10120D0
:1006600040040AE00D4B984202D10120800404E0CE
:100670000B4B984208D10120C004CB6A0343CB62E4
:10068000CB6A8343CB6200E0012210467047000032
:100690000038014000100240004400400048004083
:1006A000004C0040FEB5044600680D460127384066
:1006B00064D12969A868EA69084369691143084354
:1006C00021682F4A114008432060E86861680322CE
:1006D0001203914301436160A969A068121190431C
:1006E0000843A0602748844201D1032003E0264844
:1006F000844203D10C20FFF725FF09E02348844200
:1007000002D02348844232D16846FFF70FFF029897
:1007100000282CD06E68002E29D029680027EA69AD
:100720000B2924D80123DB039A4213D109068A0D31
:1007300018498958FFF7DEFC40007108401831461F
:10074000FFF7D8FC81B2144808400907490F01435C
:10075000E1600CE009068A0D0E498958FFF7CAFCD2
:10076000710840183146FFF7C5FC80B2E060288868
:10077000E16A80B2090909010143E1623846FEBD20
:10078000F369FFEF0038014000440040004800409A
:10079000004C0040EC120008F0FF000010B500F023
:1007A000CDF810BDFEE77047054989688A093C21EC
:1007B0000A400A400349895CC906C90EC84070470F
:1007C000001002401C13000805498968054A4904C5
:1007D000490F8900515CC906C90EC8407047000026
:1007E000001002405C13000810B50B4988683822DD
:1007F000104008280AD010280AD008680121800477
:10080000400F81400548FFF775FC10BD044810BD3E
:1008100000F008F810BD0000001002400024F400B1
:1008200000127A0070B5FFF7E9FE0C4C022802D0E6
:10083000032800D164100A48C068450F6D1CFFF7FB
:10084000D5FE0609761CFFF7E1FE60433146FFF74F
:1008500051FC2946FFF74EFC70BD00000024F40057
:1008600000100240F7B582B000240C600F46064627
:1008700001216846049A00F0E7FC0546012821D1D1
:1008800068460078182821D006DC01280CD0022800
:100890000CD0042806D137E0412803D0612801D0CC
:1008A000722822D000252FE0802401E00124A40238
:1008B0003070211DB01C049A00F0C6FC05460128CA
:1008C00024D000243C60284605B0F0BD01216846D4
:1008D000049A00F0B9FC012803D168460078182872
:1008E00001D000250EE002240EE001216846049AA2
:1008F00000F0AAFC012805D168460078652803D1DC
:1009000000F080FC684600783070DBE7F078B17862
:10091000FF22504081420DD13019017940790902FE
:10092000401801902146301DFFF726FC0146019832
:100930008142C7D000242546C4E770471FB5002078
:10094000009001900290039003A800F059F900284C
:1009500007D0052822D0042822D0022824D013A0B2
:100960001FE01A4800F090F8194800F08DF868462A
:100970000399FFF743FD17A000F086F8684600F0E2
:1009800083F817A000F080F818A000F07DF800F0C0
:100990007DFA72B61B4800F01FFC1FBD1AA000E0D4
:1009A00029A000F071F81FBD2EA0FAE70A0D4661DC
:1009B000696C656420746F20726563656976652073
:1009C0007468652066696C65210A0D007C13000857
:1009D000CC0800200A0D2053697A653A20000000F7
:1009E0002042797465730D0A000000002D2D2D2D15
:1009F0002D2D2D2D2D2D2D2D2D2D2D2D2D2D2D0A4A
:100A000000000000002800080A0A0D5468652069EB
:100A10006D6167652073697A65206973206869670D
:100A2000686572207468616E2074686520616C6C02
:100A30006F776564207370616365206D656D6F729B
:100A400079210A0D000000000A0A0D5665726966D8
:100A500069636174696F6E206661696C6564210AFF
:100A60000D0000000D0A0A41626F72746564206215
:100A70007920757365722E0A0D00000001B5012101
:100A8000684600F00BFC08BD10B5002101E0491CD0
:100A900089B2425C002AFAD100F000FC10BDF0B52A
:100AA000054600242B7820462246302B2CD16B782B
:100AB000782B01D0582B27D102241AE01E46413E44
:100AC000052E06D91F46613F052F02D93137092F60
:100AD00013D81F461201303F092F01D83B4604E0CE
:100AE000052E01D8373B00E0573BD218641C0B2C75
:100AF00004D22B5D002BE1D103E000202B5D002B05
:100B000001D101200A60F0BD2B5D002B0ED06B2BB4
:100B100001D04B2B03D1002C01D0920206E06D2BAB
:100B200001D04D2B05D1002C03D0120501200A6005
:100B300007E01E46303E092E09D80A267243303A95
:100B40009A18641C0B2CDED20128DDD1F0BD0020E8
:100B5000F0BD00B5FFF73AFC00BD000001200249DE
:100B6000C00688607047000000ED00E00548C169DC
:100B70008906C90F04D001688906C90F00D0406AF0
:100B8000704700000038014038B5104CE06980061D
:100B9000C00F11D020688006C00F0DD0606A0D49CB
:100BA0000B4B0A889854521C90B20B4A0880904212
:100BB00001D30020088038BD1C2000F0D9F8E0697E
:100BC00000904007F7D50420206238BD0044004063
:100BD000340000200800002098080000074AFF3178
:100BE000013140004900CB0500D5401CC30300D5AE
:100BF0005040CB03F5D580B27047000021100000B3
:100C0000F1B5002790B051494F4808973D463C4602
:100C1000086092E0002006460B908AE07D22D20018
:100C20000CA94B48FFF71EFE01280AD0089800289F
:100C300000D06D1C052D79D91820FFF71FFF182053
:100C400075E00C9A0025002A0ED0022A07D04049F0
:100C50000B988B78C0B283420BD0152067E006203A
:100C6000FFF70CFF022464E00620FFF707FF0126D0
:100C70005FE00B9800280CD034480068091D00F094
:100C8000C5F8324800680C994118304801600620C8
:100C90003DE00879002843D000202E4B091D02E0DA
:100CA0001A54401C491C0A78002A01D04028F7D366
:100CB00000221A54104604AB01E01A54401C491C8F
:100CC0000A78202A01D01028F7D3002119540DA941
:100CD0001846FFF7E4FE10981F49006888420BD9B8
:100CE000182069460872012102A800F0D7FA0121F4
:100CF00002A800F0D3FA05243B21134800F0CCF8F9
:100D000010980D9901600620FFF7B8FE4320FFF709
:100D1000B5FE0B98401C0B900120089009E005E0FF
:100D20000620FFF7ABFE0126374602E04320FFF71F
:100D3000A5FE3046204300D170E73846204300D15D
:100D400068E7204611B0F0BD002800081000002020
:100D50000C090020CC08002001D8010010B5024A7F
:100D6000024900F024F810BDC51100080C00002055
:100D7000002809DBC106C90E01208840034908602C
:100D8000BFF34F8FBFF36F8F7047000080E100E02B
:100D900002E008C8121F08C1002AFAD17047704744
:100DA000002001E001C1121F002AFBD17047F8B5F5
:100DB00016460F460446002503E03946B047641C3A
:100DC0006D1C20780028F8D12846F8BD0448054954
:100DD0004068884201D00120704700207047000021
:100DE000140D0020AAAAAAAA70B5074D0024601904
:100DF00000F070F8FF2801D0012070BD641CE4B23F
:100E0000202CF4D3002070BD00380008F8B5002471
:100E10000E460546002A26D0500702D0D208D2003E
:100E20000832D7081DE0E000315C82195078537910
:100E30000002084391781B0209040143D0780006A0
:100E4000084311790B439179D279090419431306A8
:100E50000B4300210A184B41284600F03DF8641C62
:100E60000835A742DFD8F8BD70B5064D064E002400
:100E7000601900F02FF83055641CA4B2102CF7D381
:100E800070BD000000180008140D002010B500F01F
:100E900091F8FFF7F7F910BD30B50D4685B0002188
:100EA00004911F21C9064018C40AFFF775FA0220F1
:100EB000009004A9039502946846FFF7EBF9002817
:100EC00004D0FFF72BFA002005B030BDFFF726FA5B
:100ED0000120F9E70078704770B516461C460546B4
:100EE000FFF75AFA3246234629460120FFF724FA33
:100EF000002803D0FFF712FA002070BDFFF70EFAAA
:100F0000012070BD38B51248012102680A43026011
:100F100000680F4C084000900807403CE16B01431B
:100F2000E163E16B032201400A480091016852022B
:100F30001143016000F010F8FFF750FA616B2020B8
:100F400001436163616B0140009100F03DF838BDE1
:100F5000401002400000014010B51448016882159D
:100F60001143016001684905C90FFBD081680F2258
:100F70001202914381608168C908C90081603822EA
:100F800081681142FCD1816807221203914381607C
:100F9000074C2046FFF7BAFA2046FFF73FFB03490C
:100FA000403148690C229043486110BD0010024056
:100FB0000024F40010B51C20FFF7DAFE0148FFF70B
:100FC0003DFB10BD00440040F0B58FB0202106A8C5
:100FD000FFF7ADF818216846FFF7A9F82A48012164
:100FE000C26B49040A43C263C06B08400E900120E3
:100FF000FFF780FA012504200024059500900227C0
:101000000520029403946946019704940007FFF7B2
:101010001BFA0826052000960294039469460007EF
:10102000019705950494FFF70FFAE120400207901D
:101030000894069409940A940C940D940C20134C73
:101040000B9006A92046FFF72DFBA068C000C00842
:10105000A060A068072149068843A0602068E104D9
:10106000884320602046FFF7DFFA2068284320608D
:10107000E0698002C00FFBD0E0694002C00FF7D0EA
:1010800026620FB0F0BD0000001002400044004096
:1010900010B50022084B08E0DC692406E40FFBD001
:1010A00004789C62521C92B2401C8A42F4D3D869E4
:1010B0004006C00FFBD010BD0044004010B5FFF744
:1010C00085FE002811D0FFF78FFE002809D008A068
:1010D000FFF744FEFFF7DAFE72B6144800F07CF822
:1010E00010BD13A0FFF73AFE10BD20A0FAE70000E4
:1010F0006170702065786973742C206A756D70203A
:10110000746F206170702E2E2E2028617070206EFA
:10111000657665722065726173656420262076614C
:101120006C696420617070290D0A000000280008B5
:10113000617070206E6F742065786973742C2077ED
:101140006169742E2E2E2028617070206E65766580
:1011500072206572617365642026206E6F2076614F
:101160006C696420617070290D0A00006170702044
:101170006E6F742065786973742C20776169742EA2
:101180002E2E202861707020657261736564290DB0
:101190000A00000008B500204B220090D200022176
:1011A000684600F051F8012807D168460078732896
:1011B00003D168464078742801D0002008BD012082
:1011C00008BD00000349CA691206D20FFBD0C2B2A3
:1011D0008A6270470044004010B50168074A114018
:1011E00001225207914207D14168054C21600068F5
:1011F000FEF76EFF2068804710BD00000000FE2F44
:101200001400002072B6BFF34F8F04490248C86033
:10121000BFF34F8F00BFFDE70400FA0500ED00E0CB
:10122000FFF770FEFFF720FEFFF7B4FF002801D1A3
:10123000FFF744FFFFF7B2FA00F034F80128FBD1C2
:10124000FFF7E0FFF8E70000F7B582B016460F465B
:10125000FFF7B6F80025104C019019E0002E05D0DC
:10126000FFF7AEF80199401AB04202D9002005B04C
:10127000F0BDE0690090000701D508202062E06918
:101280008006C00FEAD0606A029948556D1CADB265
:10129000BD42F4D30120EAE70044004010B5FFF757
:1012A000F7FE10BDF8B5002569462C460D700DA659
:1012B0000EE0322201216846FFF7C6FF01280ED159
:1012C0006946305D0978884209D10125641CE4B281
:1012D0003046FEF737FFA042EBD82846F8BD002580
:1012E000FBE700007265626F6F7400000100000090
:1012F00002000000040000000600000008000000DA
:101300000A0000000C000000100000002000000097
:10131000400000008000000000010000000000000C
:1013200000000000000000000000000000000000BD
:1013300000000000000000000000000001000000AC
:10134000020000000300000004000000060000008E
:101350000700000008000000090000000000000075
:10136000000000000000000000000000010000007C
:101370000200000003000000040000000A0A0D2023
:1013800050726F6772616D6D696E6720436F6D702B
:101390006C65746564205375636365737366756CFF
:1013A0006C79210A0D2D2D2D2D2D2D2D2D2D2D2D31
:1013B0002D2D2D2D2D2D2D2D2D2D2D2D2D2D2D2D5D
:1013C0002D2D2D2D2D0D0A204E616D653A2000002A
:1013D000F01300080000002018000000900D000825
:1013E0000814000818000020100F0000A00D0008CD
:1013F000000000000024F4000000000000000000D5
:081400000000000000000000E4
:04000005080000BD32
:00000001FF
